{
  "_format": "hh-sol-artifact-1",
  "contractName": "Moneymatchr",
  "sourceName": "contracts/Moneymatchr.sol",
  "abi": [
    {
      "inputs": [
        {
          "internalType": "address",
          "name": "initialOwner",
          "type": "address"
        },
        {
          "internalType": "address",
          "name": "_Smashpros",
          "type": "address"
        }
      ],
      "stateMutability": "nonpayable",
      "type": "constructor"
    },
    {
      "inputs": [],
      "name": "AccessControlBadConfirmation",
      "type": "error"
    },
    {
      "inputs": [
        {
          "internalType": "address",
          "name": "account",
          "type": "address"
        },
        {
          "internalType": "bytes32",
          "name": "neededRole",
          "type": "bytes32"
        }
      ],
      "name": "AccessControlUnauthorizedAccount",
      "type": "error"
    },
    {
      "inputs": [
        {
          "internalType": "address",
          "name": "owner",
          "type": "address"
        }
      ],
      "name": "OwnableInvalidOwner",
      "type": "error"
    },
    {
      "inputs": [
        {
          "internalType": "address",
          "name": "account",
          "type": "address"
        }
      ],
      "name": "OwnableUnauthorizedAccount",
      "type": "error"
    },
    {
      "anonymous": false,
      "inputs": [
        {
          "indexed": true,
          "internalType": "bytes32",
          "name": "_id",
          "type": "bytes32"
        }
      ],
      "name": "Accept",
      "type": "event"
    },
    {
      "anonymous": false,
      "inputs": [
        {
          "indexed": true,
          "internalType": "bytes32",
          "name": "_id",
          "type": "bytes32"
        },
        {
          "indexed": false,
          "internalType": "address",
          "name": "_from",
          "type": "address"
        },
        {
          "indexed": false,
          "internalType": "address",
          "name": "_for",
          "type": "address"
        }
      ],
      "name": "Agree",
      "type": "event"
    },
    {
      "anonymous": false,
      "inputs": [
        {
          "indexed": true,
          "internalType": "bytes32",
          "name": "_id",
          "type": "bytes32"
        }
      ],
      "name": "Decline",
      "type": "event"
    },
    {
      "anonymous": false,
      "inputs": [
        {
          "indexed": true,
          "internalType": "bytes32",
          "name": "_id",
          "type": "bytes32"
        }
      ],
      "name": "Freeze",
      "type": "event"
    },
    {
      "anonymous": false,
      "inputs": [
        {
          "indexed": true,
          "internalType": "address",
          "name": "previousOwner",
          "type": "address"
        },
        {
          "indexed": true,
          "internalType": "address",
          "name": "newOwner",
          "type": "address"
        }
      ],
      "name": "OwnershipTransferred",
      "type": "event"
    },
    {
      "anonymous": false,
      "inputs": [
        {
          "indexed": true,
          "internalType": "bytes32",
          "name": "role",
          "type": "bytes32"
        },
        {
          "indexed": true,
          "internalType": "bytes32",
          "name": "previousAdminRole",
          "type": "bytes32"
        },
        {
          "indexed": true,
          "internalType": "bytes32",
          "name": "newAdminRole",
          "type": "bytes32"
        }
      ],
      "name": "RoleAdminChanged",
      "type": "event"
    },
    {
      "anonymous": false,
      "inputs": [
        {
          "indexed": true,
          "internalType": "bytes32",
          "name": "role",
          "type": "bytes32"
        },
        {
          "indexed": true,
          "internalType": "address",
          "name": "account",
          "type": "address"
        },
        {
          "indexed": true,
          "internalType": "address",
          "name": "sender",
          "type": "address"
        }
      ],
      "name": "RoleGranted",
      "type": "event"
    },
    {
      "anonymous": false,
      "inputs": [
        {
          "indexed": true,
          "internalType": "bytes32",
          "name": "role",
          "type": "bytes32"
        },
        {
          "indexed": true,
          "internalType": "address",
          "name": "account",
          "type": "address"
        },
        {
          "indexed": true,
          "internalType": "address",
          "name": "sender",
          "type": "address"
        }
      ],
      "name": "RoleRevoked",
      "type": "event"
    },
    {
      "anonymous": false,
      "inputs": [
        {
          "indexed": true,
          "internalType": "bytes32",
          "name": "_id",
          "type": "bytes32"
        },
        {
          "indexed": true,
          "internalType": "address",
          "name": "_to",
          "type": "address"
        },
        {
          "indexed": false,
          "internalType": "uint256",
          "name": "amount",
          "type": "uint256"
        }
      ],
      "name": "Send",
      "type": "event"
    },
    {
      "anonymous": false,
      "inputs": [
        {
          "indexed": true,
          "internalType": "bytes32",
          "name": "_id",
          "type": "bytes32"
        },
        {
          "indexed": false,
          "internalType": "address",
          "name": "_winner",
          "type": "address"
        }
      ],
      "name": "Win",
      "type": "event"
    },
    {
      "inputs": [],
      "name": "DEFAULT_ADMIN_ROLE",
      "outputs": [
        {
          "internalType": "bytes32",
          "name": "",
          "type": "bytes32"
        }
      ],
      "stateMutability": "view",
      "type": "function"
    },
    {
      "inputs": [],
      "name": "MATCH_MODERATOR",
      "outputs": [
        {
          "internalType": "bytes32",
          "name": "",
          "type": "bytes32"
        }
      ],
      "stateMutability": "view",
      "type": "function"
    },
    {
      "inputs": [],
      "name": "Smashpros",
      "outputs": [
        {
          "internalType": "contract ERC20",
          "name": "",
          "type": "address"
        }
      ],
      "stateMutability": "view",
      "type": "function"
    },
    {
      "inputs": [
        {
          "internalType": "bytes32",
          "name": "id",
          "type": "bytes32"
        },
        {
          "internalType": "uint256",
          "name": "amount",
          "type": "uint256"
        }
      ],
      "name": "accept",
      "outputs": [
        {
          "internalType": "bool",
          "name": "",
          "type": "bool"
        }
      ],
      "stateMutability": "nonpayable",
      "type": "function"
    },
    {
      "inputs": [
        {
          "internalType": "bytes32",
          "name": "id",
          "type": "bytes32"
        },
        {
          "internalType": "address",
          "name": "on",
          "type": "address"
        }
      ],
      "name": "agree",
      "outputs": [
        {
          "internalType": "bool",
          "name": "",
          "type": "bool"
        }
      ],
      "stateMutability": "nonpayable",
      "type": "function"
    },
    {
      "inputs": [
        {
          "internalType": "bytes32",
          "name": "id",
          "type": "bytes32"
        }
      ],
      "name": "decline",
      "outputs": [
        {
          "internalType": "bool",
          "name": "",
          "type": "bool"
        }
      ],
      "stateMutability": "nonpayable",
      "type": "function"
    },
    {
      "inputs": [
        {
          "internalType": "bytes32",
          "name": "id",
          "type": "bytes32"
        }
      ],
      "name": "emergencyWithdraw",
      "outputs": [],
      "stateMutability": "nonpayable",
      "type": "function"
    },
    {
      "inputs": [
        {
          "internalType": "bytes32",
          "name": "id",
          "type": "bytes32"
        }
      ],
      "name": "getMatch",
      "outputs": [
        {
          "components": [
            {
              "internalType": "address",
              "name": "initiator",
              "type": "address"
            },
            {
              "internalType": "address",
              "name": "opponent",
              "type": "address"
            },
            {
              "internalType": "address",
              "name": "winner",
              "type": "address"
            },
            {
              "internalType": "uint256",
              "name": "amount",
              "type": "uint256"
            },
            {
              "internalType": "uint256",
              "name": "maxMatches",
              "type": "uint256"
            },
            {
              "internalType": "uint256",
              "name": "initiatorScore",
              "type": "uint256"
            },
            {
              "internalType": "uint256",
              "name": "opponentScore",
              "type": "uint256"
            },
            {
              "internalType": "address",
              "name": "initiatorAgreement",
              "type": "address"
            },
            {
              "internalType": "address",
              "name": "opponentAgreement",
              "type": "address"
            },
            {
              "internalType": "uint256",
              "name": "attempts",
              "type": "uint256"
            },
            {
              "internalType": "bool",
              "name": "frozen",
              "type": "bool"
            },
            {
              "internalType": "enum MatchState",
              "name": "state",
              "type": "uint8"
            }
          ],
          "internalType": "struct Match",
          "name": "",
          "type": "tuple"
        }
      ],
      "stateMutability": "view",
      "type": "function"
    },
    {
      "inputs": [
        {
          "internalType": "bytes32",
          "name": "role",
          "type": "bytes32"
        }
      ],
      "name": "getRoleAdmin",
      "outputs": [
        {
          "internalType": "bytes32",
          "name": "",
          "type": "bytes32"
        }
      ],
      "stateMutability": "view",
      "type": "function"
    },
    {
      "inputs": [
        {
          "internalType": "bytes32",
          "name": "role",
          "type": "bytes32"
        },
        {
          "internalType": "address",
          "name": "account",
          "type": "address"
        }
      ],
      "name": "grantRole",
      "outputs": [],
      "stateMutability": "nonpayable",
      "type": "function"
    },
    {
      "inputs": [
        {
          "internalType": "bytes32",
          "name": "role",
          "type": "bytes32"
        },
        {
          "internalType": "address",
          "name": "account",
          "type": "address"
        }
      ],
      "name": "hasRole",
      "outputs": [
        {
          "internalType": "bool",
          "name": "",
          "type": "bool"
        }
      ],
      "stateMutability": "view",
      "type": "function"
    },
    {
      "inputs": [],
      "name": "maxAgreementAttempts",
      "outputs": [
        {
          "internalType": "uint256",
          "name": "",
          "type": "uint256"
        }
      ],
      "stateMutability": "view",
      "type": "function"
    },
    {
      "inputs": [],
      "name": "owner",
      "outputs": [
        {
          "internalType": "address",
          "name": "",
          "type": "address"
        }
      ],
      "stateMutability": "view",
      "type": "function"
    },
    {
      "inputs": [],
      "name": "renounceOwnership",
      "outputs": [],
      "stateMutability": "nonpayable",
      "type": "function"
    },
    {
      "inputs": [
        {
          "internalType": "bytes32",
          "name": "role",
          "type": "bytes32"
        },
        {
          "internalType": "address",
          "name": "callerConfirmation",
          "type": "address"
        }
      ],
      "name": "renounceRole",
      "outputs": [],
      "stateMutability": "nonpayable",
      "type": "function"
    },
    {
      "inputs": [
        {
          "internalType": "bytes32",
          "name": "role",
          "type": "bytes32"
        },
        {
          "internalType": "address",
          "name": "account",
          "type": "address"
        }
      ],
      "name": "revokeRole",
      "outputs": [],
      "stateMutability": "nonpayable",
      "type": "function"
    },
    {
      "inputs": [
        {
          "internalType": "address",
          "name": "opponent",
          "type": "address"
        },
        {
          "internalType": "uint256",
          "name": "amount",
          "type": "uint256"
        },
        {
          "internalType": "uint256",
          "name": "maxMatches",
          "type": "uint256"
        }
      ],
      "name": "start",
      "outputs": [
        {
          "internalType": "bool",
          "name": "",
          "type": "bool"
        }
      ],
      "stateMutability": "nonpayable",
      "type": "function"
    },
    {
      "inputs": [
        {
          "internalType": "bytes4",
          "name": "interfaceId",
          "type": "bytes4"
        }
      ],
      "name": "supportsInterface",
      "outputs": [
        {
          "internalType": "bool",
          "name": "",
          "type": "bool"
        }
      ],
      "stateMutability": "view",
      "type": "function"
    },
    {
      "inputs": [
        {
          "internalType": "address",
          "name": "newOwner",
          "type": "address"
        }
      ],
      "name": "transferOwnership",
      "outputs": [],
      "stateMutability": "nonpayable",
      "type": "function"
    }
  ],
  "bytecode": "0x60c0604052600360a0908152503480156200001957600080fd5b50604051620047ff380380620047ff83398181016040528101906200003f91906200044f565b81600073ffffffffffffffffffffffffffffffffffffffff168173ffffffffffffffffffffffffffffffffffffffff1603620000b55760006040517f1e4fbdf7000000000000000000000000000000000000000000000000000000008152600401620000ac9190620004a7565b60405180910390fd5b620000c681620001ab60201b60201c565b50600073ffffffffffffffffffffffffffffffffffffffff168173ffffffffffffffffffffffffffffffffffffffff160362000139576040517f08c379a0000000000000000000000000000000000000000000000000000000008152600401620001309062000525565b60405180910390fd5b8073ffffffffffffffffffffffffffffffffffffffff1660808173ffffffffffffffffffffffffffffffffffffffff1681525050620001a27fb112e0c9ec8e3f5cff835bd9eeab690a544692d98f1876a66929cf8426dd820a60001b836200026f60201b60201c565b50505062000547565b60008060009054906101000a900473ffffffffffffffffffffffffffffffffffffffff169050816000806101000a81548173ffffffffffffffffffffffffffffffffffffffff021916908373ffffffffffffffffffffffffffffffffffffffff1602179055508173ffffffffffffffffffffffffffffffffffffffff168173ffffffffffffffffffffffffffffffffffffffff167f8be0079c531659141344cd1fd0a4f28419497f9722a3daafe3b4186f6b6457e060405160405180910390a35050565b60006200028383836200037260201b60201c565b6200036757600180600085815260200190815260200160002060000160008473ffffffffffffffffffffffffffffffffffffffff1673ffffffffffffffffffffffffffffffffffffffff16815260200190815260200160002060006101000a81548160ff02191690831515021790555062000303620003dd60201b60201c565b73ffffffffffffffffffffffffffffffffffffffff168273ffffffffffffffffffffffffffffffffffffffff16847f2f8788117e7eff1d82e926ec794901d17c78024a50270940304540a733656f0d60405160405180910390a4600190506200036c565b600090505b92915050565b60006001600084815260200190815260200160002060000160008373ffffffffffffffffffffffffffffffffffffffff1673ffffffffffffffffffffffffffffffffffffffff16815260200190815260200160002060009054906101000a900460ff16905092915050565b600033905090565b600080fd5b600073ffffffffffffffffffffffffffffffffffffffff82169050919050565b60006200041782620003ea565b9050919050565b62000429816200040a565b81146200043557600080fd5b50565b60008151905062000449816200041e565b92915050565b60008060408385031215620004695762000468620003e5565b5b6000620004798582860162000438565b92505060206200048c8582860162000438565b9150509250929050565b620004a1816200040a565b82525050565b6000602082019050620004be600083018462000496565b92915050565b600082825260208201905092915050565b7f4e6565647320746f6b656e206164647265737300000000000000000000000000600082015250565b60006200050d601383620004c4565b91506200051a82620004d5565b602082019050919050565b600060208201905081810360008301526200054081620004fe565b9050919050565b60805160a05161425a620005a560003960008181610e170152818161208c0152612d120152600081816106a30152818161077f01528181610b6801528181611e4201528181611f1d01528181612046015261274f015261425a6000f3fe608060405234801561001057600080fd5b50600436106101215760003560e01c80638cc7d3d1116100ad578063af9507b811610071578063af9507b81461032e578063d547741f1461034c578063d58d610d14610368578063f2fde38b14610386578063fcc6077d146103a257610121565b80638cc7d3d1146102625780638da5cb5b1461029257806391d14854146102b05780639d14cb64146102e0578063a217fddf1461031057610121565b806336568abe116100f457806336568abe146101c057806350f8a01e146101dc578063715018a61461020c57806375870d65146102165780637f74fca01461023257610121565b806301ffc9a7146101265780631919b03214610156578063248a9ca3146101745780632f2ff15d146101a4575b600080fd5b610140600480360381019061013b91906131fd565b6103d2565b60405161014d9190613245565b60405180910390f35b61015e61044c565b60405161016b9190613279565b60405180910390f35b61018e600480360381019061018991906132c0565b610473565b60405161019b9190613279565b60405180910390f35b6101be60048036038101906101b9919061334b565b610493565b005b6101da60048036038101906101d5919061334b565b6104b5565b005b6101f660048036038101906101f191906133c1565b610530565b6040516102039190613245565b60405180910390f35b610214610c62565b005b610230600480360381019061022b91906132c0565b610c76565b005b61024c6004803603810190610247919061334b565b6110ce565b6040516102599190613245565b60405180910390f35b61027c600480360381019061027791906132c0565b6117c6565b6040516102899190613245565b60405180910390f35b61029a611b5f565b6040516102a79190613423565b60405180910390f35b6102ca60048036038101906102c5919061334b565b611b88565b6040516102d79190613245565b60405180910390f35b6102fa60048036038101906102f5919061343e565b611bf3565b6040516103079190613245565b60405180910390f35b61031861203d565b6040516103259190613279565b60405180910390f35b610336612044565b60405161034391906134dd565b60405180910390f35b6103666004803603810190610361919061334b565b612068565b005b61037061208a565b60405161037d9190613507565b60405180910390f35b6103a0600480360381019061039b9190613522565b6120ae565b005b6103bc60048036038101906103b791906132c0565b612134565b6040516103c991906136e9565b60405180910390f35b60007f7965db0b000000000000000000000000000000000000000000000000000000007bffffffffffffffffffffffffffffffffffffffffffffffffffffffff1916827bffffffffffffffffffffffffffffffffffffffffffffffffffffffff19161480610445575061044482612398565b5b9050919050565b7fb112e0c9ec8e3f5cff835bd9eeab690a544692d98f1876a66929cf8426dd820a60001b81565b600060016000838152602001908152602001600020600101549050919050565b61049c82610473565b6104a581612402565b6104af8383612416565b50505050565b6104bd612507565b73ffffffffffffffffffffffffffffffffffffffff168173ffffffffffffffffffffffffffffffffffffffff1614610521576040517f6697b23200000000000000000000000000000000000000000000000000000000815260040160405180910390fd5b61052b828261250f565b505050565b60008073ffffffffffffffffffffffffffffffffffffffff168473ffffffffffffffffffffffffffffffffffffffff16036105a0576040517f08c379a000000000000000000000000000000000000000000000000000000000815260040161059790613788565b60405180910390fd5b3373ffffffffffffffffffffffffffffffffffffffff168473ffffffffffffffffffffffffffffffffffffffff160361060e576040517f08c379a00000000000000000000000000000000000000000000000000000000081526004016106059061381a565b60405180910390fd5b600060028361061d9190613869565b0361065d576040517f08c379a0000000000000000000000000000000000000000000000000000000008152600401610654906138e6565b60405180910390fd5b600083116106a0576040517f08c379a000000000000000000000000000000000000000000000000000000000815260040161069790613952565b60405180910390fd5b827f000000000000000000000000000000000000000000000000000000000000000073ffffffffffffffffffffffffffffffffffffffff166370a08231336040518263ffffffff1660e01b81526004016106fa9190613423565b602060405180830381865afa158015610717573d6000803e3d6000fd5b505050506040513d601f19601f8201168201806040525081019061073b9190613987565b101561077c576040517f08c379a000000000000000000000000000000000000000000000000000000000815260040161077390613a00565b60405180910390fd5b827f000000000000000000000000000000000000000000000000000000000000000073ffffffffffffffffffffffffffffffffffffffff1663dd62ed3e33306040518363ffffffff1660e01b81526004016107d8929190613a20565b602060405180830381865afa1580156107f5573d6000803e3d6000fd5b505050506040513d601f19601f820116820180604052508101906108199190613987565b101561085a576040517f08c379a000000000000000000000000000000000000000000000000000000000815260040161085190613abb565b60405180910390fd5b6000334286866040516020016108739493929190613b44565b6040516020818303038152906040528051906020012090506040518061018001604052803373ffffffffffffffffffffffffffffffffffffffff1681526020018673ffffffffffffffffffffffffffffffffffffffff168152602001600073ffffffffffffffffffffffffffffffffffffffff1681526020018581526020018481526020016000815260200160008152602001600073ffffffffffffffffffffffffffffffffffffffff168152602001600073ffffffffffffffffffffffffffffffffffffffff16815260200160008152602001600015158152602001600060058111156109645761096361357c565b5b8152506002600083815260200190815260200160002060008201518160000160006101000a81548173ffffffffffffffffffffffffffffffffffffffff021916908373ffffffffffffffffffffffffffffffffffffffff16021790555060208201518160010160006101000a81548173ffffffffffffffffffffffffffffffffffffffff021916908373ffffffffffffffffffffffffffffffffffffffff16021790555060408201518160020160006101000a81548173ffffffffffffffffffffffffffffffffffffffff021916908373ffffffffffffffffffffffffffffffffffffffff160217905550606082015181600301556080820151816004015560a0820151816005015560c0820151816006015560e08201518160070160006101000a81548173ffffffffffffffffffffffffffffffffffffffff021916908373ffffffffffffffffffffffffffffffffffffffff1602179055506101008201518160080160006101000a81548173ffffffffffffffffffffffffffffffffffffffff021916908373ffffffffffffffffffffffffffffffffffffffff160217905550610120820151816009015561014082015181600a0160006101000a81548160ff02191690831515021790555061016082015181600a0160016101000a81548160ff02191690836005811115610b5e57610b5d61357c565b5b02179055509050507f000000000000000000000000000000000000000000000000000000000000000073ffffffffffffffffffffffffffffffffffffffff166323b872dd3330876040518463ffffffff1660e01b8152600401610bc393929190613b92565b6020604051808303816000875af1158015610be2573d6000803e3d6000fd5b505050506040513d601f19601f82011682018060405250810190610c069190613bf5565b508473ffffffffffffffffffffffffffffffffffffffff16817ff03c31d46f00d01845c74b8dddad4bcfc266c16a9e691553ef164d4172aa75bc86604051610c4e9190613507565b60405180910390a360019150509392505050565b610c6a612602565b610c746000612689565b565b7fb112e0c9ec8e3f5cff835bd9eeab690a544692d98f1876a66929cf8426dd820a60001b610ca381612402565b816000801b8103610ce9576040517f08c379a0000000000000000000000000000000000000000000000000000000008152600401610ce090613c6e565b60405180910390fd5b600073ffffffffffffffffffffffffffffffffffffffff166002600083815260200190815260200160002060000160009054906101000a900473ffffffffffffffffffffffffffffffffffffffff1673ffffffffffffffffffffffffffffffffffffffff1614158015610dbf5750600073ffffffffffffffffffffffffffffffffffffffff166002600083815260200190815260200160002060010160009054906101000a900473ffffffffffffffffffffffffffffffffffffffff1673ffffffffffffffffffffffffffffffffffffffff1614155b610dfe576040517f08c379a0000000000000000000000000000000000000000000000000000000008152600401610df590613cda565b60405180910390fd5b60006002600085815260200190815260200160002090507f000000000000000000000000000000000000000000000000000000000000000081600901541015610e7c576040517f08c379a0000000000000000000000000000000000000000000000000000000008152600401610e7390613d6c565b60405180910390fd5b6001151581600a0160009054906101000a900460ff16151514610ed4576040517f08c379a0000000000000000000000000000000000000000000000000000000008152600401610ecb90613dfe565b60405180910390fd5b60046005811115610ee857610ee761357c565b5b81600a0160019054906101000a900460ff166005811115610f0c57610f0b61357c565b5b14610f4c576040517f08c379a0000000000000000000000000000000000000000000000000000000008152600401610f4390613dfe565b60405180910390fd5b6000600280600087815260200190815260200160002060030154610f709190613e4d565b9050610fa08260000160009054906101000a900473ffffffffffffffffffffffffffffffffffffffff168261274d565b610fce8260010160009054906101000a900473ffffffffffffffffffffffffffffffffffffffff168261274d565b600582600a0160016101000a81548160ff02191690836005811115610ff657610ff561357c565b5b021790555060008260070160006101000a81548173ffffffffffffffffffffffffffffffffffffffff021916908373ffffffffffffffffffffffffffffffffffffffff16021790555060008260080160006101000a81548173ffffffffffffffffffffffffffffffffffffffff021916908373ffffffffffffffffffffffffffffffffffffffff16021790555060008260020160006101000a81548173ffffffffffffffffffffffffffffffffffffffff021916908373ffffffffffffffffffffffffffffffffffffffff1602179055505050505050565b6000826000801b8103611116576040517f08c379a000000000000000000000000000000000000000000000000000000000815260040161110d90613c6e565b60405180910390fd5b600073ffffffffffffffffffffffffffffffffffffffff166002600083815260200190815260200160002060000160009054906101000a900473ffffffffffffffffffffffffffffffffffffffff1673ffffffffffffffffffffffffffffffffffffffff16141580156111ec5750600073ffffffffffffffffffffffffffffffffffffffff166002600083815260200190815260200160002060010160009054906101000a900473ffffffffffffffffffffffffffffffffffffffff1673ffffffffffffffffffffffffffffffffffffffff1614155b61122b576040517f08c379a000000000000000000000000000000000000000000000000000000000815260040161122290613cda565b60405180910390fd5b833373ffffffffffffffffffffffffffffffffffffffff166002600083815260200190815260200160002060000160009054906101000a900473ffffffffffffffffffffffffffffffffffffffff1673ffffffffffffffffffffffffffffffffffffffff1614806112fd57503373ffffffffffffffffffffffffffffffffffffffff166002600083815260200190815260200160002060010160009054906101000a900473ffffffffffffffffffffffffffffffffffffffff1673ffffffffffffffffffffffffffffffffffffffff16145b61133c576040517f08c379a000000000000000000000000000000000000000000000000000000000815260040161133390613eca565b60405180910390fd5b6000600260008781526020019081526020016000209050600160058111156113675761136661357c565b5b81600a0160019054906101000a900460ff16600581111561138b5761138a61357c565b5b14806113cc5750600260058111156113a6576113a561357c565b5b81600a0160019054906101000a900460ff1660058111156113ca576113c961357c565b5b145b61140b576040517f08c379a000000000000000000000000000000000000000000000000000000000815260040161140290613f5c565b60405180910390fd5b6002600581111561141f5761141e61357c565b5b81600a0160019054906101000a900460ff1660058111156114435761144261357c565b5b1461147657600281600a0160016101000a81548160ff021916908360058111156114705761146f61357c565b5b02179055505b3373ffffffffffffffffffffffffffffffffffffffff168160000160009054906101000a900473ffffffffffffffffffffffffffffffffffffffff1673ffffffffffffffffffffffffffffffffffffffff160361161957848160070160006101000a81548173ffffffffffffffffffffffffffffffffffffffff021916908373ffffffffffffffffffffffffffffffffffffffff160217905550857f60ec9b02919048b9c6a8c2b19860d4112b0f0248659360122cc607d1b7b80fbf3387604051611542929190613a20565b60405180910390a2600073ffffffffffffffffffffffffffffffffffffffff168160080160009054906101000a900473ffffffffffffffffffffffffffffffffffffffff1673ffffffffffffffffffffffffffffffffffffffff1614611614578473ffffffffffffffffffffffffffffffffffffffff168160080160009054906101000a900473ffffffffffffffffffffffffffffffffffffffff1673ffffffffffffffffffffffffffffffffffffffff16036116095761160386866127f0565b50611613565b61161286612c28565b5b5b6117b9565b3373ffffffffffffffffffffffffffffffffffffffff168160010160009054906101000a900473ffffffffffffffffffffffffffffffffffffffff1673ffffffffffffffffffffffffffffffffffffffff16036117b857848160080160006101000a81548173ffffffffffffffffffffffffffffffffffffffff021916908373ffffffffffffffffffffffffffffffffffffffff160217905550857f60ec9b02919048b9c6a8c2b19860d4112b0f0248659360122cc607d1b7b80fbf33876040516116e5929190613a20565b60405180910390a2600073ffffffffffffffffffffffffffffffffffffffff168160070160009054906101000a900473ffffffffffffffffffffffffffffffffffffffff1673ffffffffffffffffffffffffffffffffffffffff16146117b7578473ffffffffffffffffffffffffffffffffffffffff168160070160009054906101000a900473ffffffffffffffffffffffffffffffffffffffff1673ffffffffffffffffffffffffffffffffffffffff16036117ac576117a686866127f0565b506117b6565b6117b586612c28565b5b5b5b5b6001935050505092915050565b6000816000801b810361180e576040517f08c379a000000000000000000000000000000000000000000000000000000000815260040161180590613c6e565b60405180910390fd5b600073ffffffffffffffffffffffffffffffffffffffff166002600083815260200190815260200160002060000160009054906101000a900473ffffffffffffffffffffffffffffffffffffffff1673ffffffffffffffffffffffffffffffffffffffff16141580156118e45750600073ffffffffffffffffffffffffffffffffffffffff166002600083815260200190815260200160002060010160009054906101000a900473ffffffffffffffffffffffffffffffffffffffff1673ffffffffffffffffffffffffffffffffffffffff1614155b611923576040517f08c379a000000000000000000000000000000000000000000000000000000000815260040161191a90613cda565b60405180910390fd5b60006002600085815260200190815260200160002090503373ffffffffffffffffffffffffffffffffffffffff168160010160009054906101000a900473ffffffffffffffffffffffffffffffffffffffff1673ffffffffffffffffffffffffffffffffffffffff16146119cc576040517f08c379a00000000000000000000000000000000000000000000000000000000081526004016119c390613fc8565b60405180910390fd5b6119fe8160000160009054906101000a900473ffffffffffffffffffffffffffffffffffffffff16826003015461274d565b60026000858152602001908152602001600020600080820160006101000a81549073ffffffffffffffffffffffffffffffffffffffff02191690556001820160006101000a81549073ffffffffffffffffffffffffffffffffffffffff02191690556002820160006101000a81549073ffffffffffffffffffffffffffffffffffffffff021916905560038201600090556004820160009055600582016000905560068201600090556007820160006101000a81549073ffffffffffffffffffffffffffffffffffffffff02191690556008820160006101000a81549073ffffffffffffffffffffffffffffffffffffffff02191690556009820160009055600a820160006101000a81549060ff0219169055600a820160016101000a81549060ff02191690555050837f0c38c880659f17ad8b102c407ebe3562785d2dbb13ba830b9f7d86085da084e960405160405180910390a2600192505050919050565b60008060009054906101000a900473ffffffffffffffffffffffffffffffffffffffff16905090565b60006001600084815260200190815260200160002060000160008373ffffffffffffffffffffffffffffffffffffffff1673ffffffffffffffffffffffffffffffffffffffff16815260200190815260200160002060009054906101000a900460ff16905092915050565b6000826000801b8103611c3b576040517f08c379a0000000000000000000000000000000000000000000000000000000008152600401611c3290613c6e565b60405180910390fd5b600073ffffffffffffffffffffffffffffffffffffffff166002600083815260200190815260200160002060000160009054906101000a900473ffffffffffffffffffffffffffffffffffffffff1673ffffffffffffffffffffffffffffffffffffffff1614158015611d115750600073ffffffffffffffffffffffffffffffffffffffff166002600083815260200190815260200160002060010160009054906101000a900473ffffffffffffffffffffffffffffffffffffffff1673ffffffffffffffffffffffffffffffffffffffff1614155b611d50576040517f08c379a0000000000000000000000000000000000000000000000000000000008152600401611d4790613cda565b60405180910390fd5b60006002600086815260200190815260200160002090503373ffffffffffffffffffffffffffffffffffffffff168160010160009054906101000a900473ffffffffffffffffffffffffffffffffffffffff1673ffffffffffffffffffffffffffffffffffffffff1614611df9576040517f08c379a0000000000000000000000000000000000000000000000000000000008152600401611df090613fc8565b60405180910390fd5b83816003015414611e3f576040517f08c379a0000000000000000000000000000000000000000000000000000000008152600401611e369061405a565b60405180910390fd5b837f000000000000000000000000000000000000000000000000000000000000000073ffffffffffffffffffffffffffffffffffffffff166370a08231336040518263ffffffff1660e01b8152600401611e999190613423565b602060405180830381865afa158015611eb6573d6000803e3d6000fd5b505050506040513d601f19601f82011682018060405250810190611eda9190613987565b1015611f1b576040517f08c379a0000000000000000000000000000000000000000000000000000000008152600401611f1290613a00565b60405180910390fd5b7f000000000000000000000000000000000000000000000000000000000000000073ffffffffffffffffffffffffffffffffffffffff166323b872dd3330876040518463ffffffff1660e01b8152600401611f7893929190613b92565b6020604051808303816000875af1158015611f97573d6000803e3d6000fd5b505050506040513d601f19601f82011682018060405250810190611fbb9190613bf5565b5083816003016000828254611fd0919061407a565b92505081905550600181600a0160016101000a81548160ff02191690836005811115611fff57611ffe61357c565b5b0217905550847fa788588b9fe5992d98bf478f760ddc82bc8a1ebd018abd2094ec88bbdf5e27a760405160405180910390a260019250505092915050565b6000801b81565b7f000000000000000000000000000000000000000000000000000000000000000081565b61207182610473565b61207a81612402565b612084838361250f565b50505050565b7f000000000000000000000000000000000000000000000000000000000000000081565b6120b6612602565b600073ffffffffffffffffffffffffffffffffffffffff168173ffffffffffffffffffffffffffffffffffffffff16036121285760006040517f1e4fbdf700000000000000000000000000000000000000000000000000000000815260040161211f9190613423565b60405180910390fd5b61213181612689565b50565b61213c6130bd565b60026000838152602001908152602001600020604051806101800160405290816000820160009054906101000a900473ffffffffffffffffffffffffffffffffffffffff1673ffffffffffffffffffffffffffffffffffffffff1673ffffffffffffffffffffffffffffffffffffffff1681526020016001820160009054906101000a900473ffffffffffffffffffffffffffffffffffffffff1673ffffffffffffffffffffffffffffffffffffffff1673ffffffffffffffffffffffffffffffffffffffff1681526020016002820160009054906101000a900473ffffffffffffffffffffffffffffffffffffffff1673ffffffffffffffffffffffffffffffffffffffff1673ffffffffffffffffffffffffffffffffffffffff168152602001600382015481526020016004820154815260200160058201548152602001600682015481526020016007820160009054906101000a900473ffffffffffffffffffffffffffffffffffffffff1673ffffffffffffffffffffffffffffffffffffffff1673ffffffffffffffffffffffffffffffffffffffff1681526020016008820160009054906101000a900473ffffffffffffffffffffffffffffffffffffffff1673ffffffffffffffffffffffffffffffffffffffff1673ffffffffffffffffffffffffffffffffffffffff16815260200160098201548152602001600a820160009054906101000a900460ff16151515158152602001600a820160019054906101000a900460ff16600581111561237b5761237a61357c565b5b600581111561238d5761238c61357c565b5b815250509050919050565b60007f01ffc9a7000000000000000000000000000000000000000000000000000000007bffffffffffffffffffffffffffffffffffffffffffffffffffffffff1916827bffffffffffffffffffffffffffffffffffffffffffffffffffffffff1916149050919050565b6124138161240e612507565b612d49565b50565b60006124228383611b88565b6124fc57600180600085815260200190815260200160002060000160008473ffffffffffffffffffffffffffffffffffffffff1673ffffffffffffffffffffffffffffffffffffffff16815260200190815260200160002060006101000a81548160ff021916908315150217905550612499612507565b73ffffffffffffffffffffffffffffffffffffffff168273ffffffffffffffffffffffffffffffffffffffff16847f2f8788117e7eff1d82e926ec794901d17c78024a50270940304540a733656f0d60405160405180910390a460019050612501565b600090505b92915050565b600033905090565b600061251b8383611b88565b156125f75760006001600085815260200190815260200160002060000160008473ffffffffffffffffffffffffffffffffffffffff1673ffffffffffffffffffffffffffffffffffffffff16815260200190815260200160002060006101000a81548160ff021916908315150217905550612594612507565b73ffffffffffffffffffffffffffffffffffffffff168273ffffffffffffffffffffffffffffffffffffffff16847ff6391f5c32d9c69d2a47ea670b442974b53935d1edc7fd64eb21e047a839171b60405160405180910390a4600190506125fc565b600090505b92915050565b61260a612507565b73ffffffffffffffffffffffffffffffffffffffff16612628611b5f565b73ffffffffffffffffffffffffffffffffffffffff16146126875761264b612507565b6040517f118cdaa700000000000000000000000000000000000000000000000000000000815260040161267e9190613423565b60405180910390fd5b565b60008060009054906101000a900473ffffffffffffffffffffffffffffffffffffffff169050816000806101000a81548173ffffffffffffffffffffffffffffffffffffffff021916908373ffffffffffffffffffffffffffffffffffffffff1602179055508173ffffffffffffffffffffffffffffffffffffffff168173ffffffffffffffffffffffffffffffffffffffff167f8be0079c531659141344cd1fd0a4f28419497f9722a3daafe3b4186f6b6457e060405160405180910390a35050565b7f000000000000000000000000000000000000000000000000000000000000000073ffffffffffffffffffffffffffffffffffffffff1663a9059cbb83836040518363ffffffff1660e01b81526004016127a89291906140ae565b6020604051808303816000875af11580156127c7573d6000803e3d6000fd5b505050506040513d601f19601f820116820180604052508101906127eb9190613bf5565b505050565b6000823373ffffffffffffffffffffffffffffffffffffffff166002600083815260200190815260200160002060000160009054906101000a900473ffffffffffffffffffffffffffffffffffffffff1673ffffffffffffffffffffffffffffffffffffffff1614806128c457503373ffffffffffffffffffffffffffffffffffffffff166002600083815260200190815260200160002060010160009054906101000a900473ffffffffffffffffffffffffffffffffffffffff1673ffffffffffffffffffffffffffffffffffffffff16145b612903576040517f08c379a00000000000000000000000000000000000000000000000000000000081526004016128fa90613eca565b60405180910390fd5b6000600260008681526020019081526020016000209050600073ffffffffffffffffffffffffffffffffffffffff168473ffffffffffffffffffffffffffffffffffffffff1603612989576040517f08c379a000000000000000000000000000000000000000000000000000000000815260040161298090614149565b60405180910390fd5b6002600581111561299d5761299c61357c565b5b81600a0160019054906101000a900460ff1660058111156129c1576129c061357c565b5b14612a01576040517f08c379a00000000000000000000000000000000000000000000000000000000081526004016129f8906141db565b60405180910390fd5b6000600160028360040154612a169190613e4d565b612a20919061407a565b90508473ffffffffffffffffffffffffffffffffffffffff168260000160009054906101000a900473ffffffffffffffffffffffffffffffffffffffff1673ffffffffffffffffffffffffffffffffffffffff1603612ac0576001826005016000828254612a8e919061407a565b9250508190555081600501548103612abb57612aaf86868460030154612d9a565b50600193505050612c21565b612b5b565b8473ffffffffffffffffffffffffffffffffffffffff168260010160009054906101000a900473ffffffffffffffffffffffffffffffffffffffff1673ffffffffffffffffffffffffffffffffffffffff1603612b5a576001826006016000828254612b2c919061407a565b9250508190555081600601548103612b5957612b4d86868460030154612d9a565b50600193505050612c21565b5b5b600182600a0160016101000a81548160ff02191690836005811115612b8357612b8261357c565b5b021790555060008260070160006101000a81548173ffffffffffffffffffffffffffffffffffffffff021916908373ffffffffffffffffffffffffffffffffffffffff16021790555060008260080160006101000a81548173ffffffffffffffffffffffffffffffffffffffff021916908373ffffffffffffffffffffffffffffffffffffffff160217905550600082600901819055506001935050505b5092915050565b6000600260008381526020019081526020016000209050600281600a0160016101000a81548160ff02191690836005811115612c6757612c6661357c565b5b021790555060008160070160006101000a81548173ffffffffffffffffffffffffffffffffffffffff021916908373ffffffffffffffffffffffffffffffffffffffff16021790555060008160080160006101000a81548173ffffffffffffffffffffffffffffffffffffffff021916908373ffffffffffffffffffffffffffffffffffffffff1602179055506001816009016000828254612d09919061407a565b925050819055507f0000000000000000000000000000000000000000000000000000000000000000816009015403612d4557612d448261301f565b5b5050565b612d538282611b88565b612d965780826040517fe2517d3f000000000000000000000000000000000000000000000000000000008152600401612d8d9291906141fb565b60405180910390fd5b5050565b6000833373ffffffffffffffffffffffffffffffffffffffff166002600083815260200190815260200160002060000160009054906101000a900473ffffffffffffffffffffffffffffffffffffffff1673ffffffffffffffffffffffffffffffffffffffff161480612e6e57503373ffffffffffffffffffffffffffffffffffffffff166002600083815260200190815260200160002060010160009054906101000a900473ffffffffffffffffffffffffffffffffffffffff1673ffffffffffffffffffffffffffffffffffffffff16145b612ead576040517f08c379a0000000000000000000000000000000000000000000000000000000008152600401612ea490613eca565b60405180910390fd5b6000600260008781526020019081526020016000209050612ece858561274d565b600381600a0160016101000a81548160ff02191690836005811115612ef657612ef561357c565b5b021790555060008160070160006101000a81548173ffffffffffffffffffffffffffffffffffffffff021916908373ffffffffffffffffffffffffffffffffffffffff16021790555060008160080160006101000a81548173ffffffffffffffffffffffffffffffffffffffff021916908373ffffffffffffffffffffffffffffffffffffffff16021790555060008160090181905550848160020160006101000a81548173ffffffffffffffffffffffffffffffffffffffff021916908373ffffffffffffffffffffffffffffffffffffffff16021790555060008160030181905550857fc49a83b4985fe1ae5ec6b83219ceabfe8f2204c28ba5550648cf5411c693d7d18660405161300a9190613423565b60405180910390a26001925050509392505050565b600460026000838152602001908152602001600020600a0160016101000a81548160ff021916908360058111156130595761305861357c565b5b0217905550600160026000838152602001908152602001600020600a0160006101000a81548160ff021916908315150217905550807fb50c2e6c59009f63f62a34144b6eacaf379893a610bdd20ef8f0fba7775b2edb60405160405180910390a250565b604051806101800160405280600073ffffffffffffffffffffffffffffffffffffffff168152602001600073ffffffffffffffffffffffffffffffffffffffff168152602001600073ffffffffffffffffffffffffffffffffffffffff16815260200160008152602001600081526020016000815260200160008152602001600073ffffffffffffffffffffffffffffffffffffffff168152602001600073ffffffffffffffffffffffffffffffffffffffff168152602001600081526020016000151581526020016000600581111561319a5761319961357c565b5b81525090565b600080fd5b60007fffffffff0000000000000000000000000000000000000000000000000000000082169050919050565b6131da816131a5565b81146131e557600080fd5b50565b6000813590506131f7816131d1565b92915050565b600060208284031215613213576132126131a0565b5b6000613221848285016131e8565b91505092915050565b60008115159050919050565b61323f8161322a565b82525050565b600060208201905061325a6000830184613236565b92915050565b6000819050919050565b61327381613260565b82525050565b600060208201905061328e600083018461326a565b92915050565b61329d81613260565b81146132a857600080fd5b50565b6000813590506132ba81613294565b92915050565b6000602082840312156132d6576132d56131a0565b5b60006132e4848285016132ab565b91505092915050565b600073ffffffffffffffffffffffffffffffffffffffff82169050919050565b6000613318826132ed565b9050919050565b6133288161330d565b811461333357600080fd5b50565b6000813590506133458161331f565b92915050565b60008060408385031215613362576133616131a0565b5b6000613370858286016132ab565b925050602061338185828601613336565b9150509250929050565b6000819050919050565b61339e8161338b565b81146133a957600080fd5b50565b6000813590506133bb81613395565b92915050565b6000806000606084860312156133da576133d96131a0565b5b60006133e886828701613336565b93505060206133f9868287016133ac565b925050604061340a868287016133ac565b9150509250925092565b61341d8161330d565b82525050565b60006020820190506134386000830184613414565b92915050565b60008060408385031215613455576134546131a0565b5b6000613463858286016132ab565b9250506020613474858286016133ac565b9150509250929050565b6000819050919050565b60006134a361349e613499846132ed565b61347e565b6132ed565b9050919050565b60006134b582613488565b9050919050565b60006134c7826134aa565b9050919050565b6134d7816134bc565b82525050565b60006020820190506134f260008301846134ce565b92915050565b6135018161338b565b82525050565b600060208201905061351c60008301846134f8565b92915050565b600060208284031215613538576135376131a0565b5b600061354684828501613336565b91505092915050565b6135588161330d565b82525050565b6135678161338b565b82525050565b6135768161322a565b82525050565b7f4e487b7100000000000000000000000000000000000000000000000000000000600052602160045260246000fd5b600681106135bc576135bb61357c565b5b50565b60008190506135cd826135ab565b919050565b60006135dd826135bf565b9050919050565b6135ed816135d2565b82525050565b6101808201600082015161360a600085018261354f565b50602082015161361d602085018261354f565b506040820151613630604085018261354f565b506060820151613643606085018261355e565b506080820151613656608085018261355e565b5060a082015161366960a085018261355e565b5060c082015161367c60c085018261355e565b5060e082015161368f60e085018261354f565b506101008201516136a461010085018261354f565b506101208201516136b961012085018261355e565b506101408201516136ce61014085018261356d565b506101608201516136e36101608501826135e4565b50505050565b6000610180820190506136ff60008301846135f3565b92915050565b600082825260208201905092915050565b7f4f70706f6e656e74206d757374206e6f74206265206e756c6c2061646472657360008201527f7300000000000000000000000000000000000000000000000000000000000000602082015250565b6000613772602183613705565b915061377d82613716565b604082019050919050565b600060208201905081810360008301526137a181613765565b9050919050565b7f596f752063616e6e6f74206661636520796f757273656c6620696e2061206d6f60008201527f6e65796d61746368000000000000000000000000000000000000000000000000602082015250565b6000613804602883613705565b915061380f826137a8565b604082019050919050565b60006020820190508181036000830152613833816137f7565b9050919050565b7f4e487b7100000000000000000000000000000000000000000000000000000000600052601260045260246000fd5b60006138748261338b565b915061387f8361338b565b92508261388f5761388e61383a565b5b828206905092915050565b7f6d61784d617463686573206d757374206265206f646400000000000000000000600082015250565b60006138d0601683613705565b91506138db8261389a565b602082019050919050565b600060208201905081810360008301526138ff816138c3565b9050919050565b7f506f73697469766520616d6f756e742069732072657175697265640000000000600082015250565b600061393c601b83613705565b915061394782613906565b602082019050919050565b6000602082019050818103600083015261396b8161392f565b9050919050565b60008151905061398181613395565b92915050565b60006020828403121561399d5761399c6131a0565b5b60006139ab84828501613972565b91505092915050565b7f4e6f7420656e6f75676820534d534820746f6b656e7300000000000000000000600082015250565b60006139ea601683613705565b91506139f5826139b4565b602082019050919050565b60006020820190508181036000830152613a19816139dd565b9050919050565b6000604082019050613a356000830185613414565b613a426020830184613414565b9392505050565b7f436f6e7472616374206e6f7420617070726f76656420746f207370656e64207460008201527f6f6b656e73000000000000000000000000000000000000000000000000000000602082015250565b6000613aa5602583613705565b9150613ab082613a49565b604082019050919050565b60006020820190508181036000830152613ad481613a98565b9050919050565b60008160601b9050919050565b6000613af382613adb565b9050919050565b6000613b0582613ae8565b9050919050565b613b1d613b188261330d565b613afa565b82525050565b6000819050919050565b613b3e613b398261338b565b613b23565b82525050565b6000613b508287613b0c565b601482019150613b608286613b2d565b602082019150613b708285613b0c565b601482019150613b808284613b2d565b60208201915081905095945050505050565b6000606082019050613ba76000830186613414565b613bb46020830185613414565b613bc160408301846134f8565b949350505050565b613bd28161322a565b8114613bdd57600080fd5b50565b600081519050613bef81613bc9565b92915050565b600060208284031215613c0b57613c0a6131a0565b5b6000613c1984828501613be0565b91505092915050565b7f4d61746368206964206d757374206e6f74206265206e756c6c00000000000000600082015250565b6000613c58601983613705565b9150613c6382613c22565b602082019050919050565b60006020820190508181036000830152613c8781613c4b565b9050919050565b7f4d61746368206d75737420657869737473000000000000000000000000000000600082015250565b6000613cc4601183613705565b9150613ccf82613c8e565b602082019050919050565b60006020820190508181036000830152613cf381613cb7565b9050919050565b7f55736572732063616e207374696c6c2074727920746f2068617665206120636f60008201527f6e73656e73757300000000000000000000000000000000000000000000000000602082015250565b6000613d56602783613705565b9150613d6182613cfa565b604082019050919050565b60006020820190508181036000830152613d8581613d49565b9050919050565b7f4d61746368206e6565647320746f2062652066726f7a656e20746f207769746860008201527f647261772066756e647300000000000000000000000000000000000000000000602082015250565b6000613de8602a83613705565b9150613df382613d8c565b604082019050919050565b60006020820190508181036000830152613e1781613ddb565b9050919050565b7f4e487b7100000000000000000000000000000000000000000000000000000000600052601160045260246000fd5b6000613e588261338b565b9150613e638361338b565b925082613e7357613e7261383a565b5b828204905092915050565b7f4e6f7420696e20746865206d6174636800000000000000000000000000000000600082015250565b6000613eb4601083613705565b9150613ebf82613e7e565b602082019050919050565b60006020820190508181036000830152613ee381613ea7565b9050919050565b7f4d61746368207374617465206d75737420626520696e20766f74696e67206f7260008201527f207374617274656420737461746520746f20766f746500000000000000000000602082015250565b6000613f46603683613705565b9150613f5182613eea565b604082019050919050565b60006020820190508181036000830152613f7581613f39565b9050919050565b7f5369676e6572206d75737420626520746865206f70706f6e656e740000000000600082015250565b6000613fb2601b83613705565b9150613fbd82613f7c565b602082019050919050565b60006020820190508181036000830152613fe181613fa5565b9050919050565b7f416d6f756e742073686f756c64206265207468652073616d652061732061677260008201527f6565640000000000000000000000000000000000000000000000000000000000602082015250565b6000614044602383613705565b915061404f82613fe8565b604082019050919050565b6000602082019050818103600083015261407381614037565b9050919050565b60006140858261338b565b91506140908361338b565b92508282019050808211156140a8576140a7613e1e565b5b92915050565b60006040820190506140c36000830185613414565b6140d060208301846134f8565b9392505050565b7f596f752073686f756c6420696e6372656173652073636f726520666f7220616e60008201527f206578697374696e672075736572000000000000000000000000000000000000602082015250565b6000614133602e83613705565b915061413e826140d7565b604082019050919050565b6000602082019050818103600083015261416281614126565b9050919050565b7f4d61746368207374617465206d75737420626520696e20766f74696e6720737460008201527f61746520746f20696e6372656173652073636f72650000000000000000000000602082015250565b60006141c5603583613705565b91506141d082614169565b604082019050919050565b600060208201905081810360008301526141f4816141b8565b9050919050565b60006040820190506142106000830185613414565b61421d602083018461326a565b939250505056fea264697066735822122066ff14f7014fc47c9ed06db55da6c16432ab930ad216465417d4b6f27a0e48ae64736f6c63430008180033",
  "linkReferences": {},
  "deployedLinkReferences": {}
}