{
  "_format": "hh-sol-artifact-1",
  "contractName": "Moneymatchr",
  "sourceName": "contracts/Moneymatchr.sol",
  "abi": [
    {
      "inputs": [
        {
          "internalType": "address",
          "name": "initialOwner",
          "type": "address"
        },
        {
          "internalType": "address",
          "name": "_Smashpros",
          "type": "address"
        }
      ],
      "stateMutability": "nonpayable",
      "type": "constructor"
    },
    {
      "inputs": [],
      "name": "AccessControlBadConfirmation",
      "type": "error"
    },
    {
      "inputs": [
        {
          "internalType": "address",
          "name": "account",
          "type": "address"
        },
        {
          "internalType": "bytes32",
          "name": "neededRole",
          "type": "bytes32"
        }
      ],
      "name": "AccessControlUnauthorizedAccount",
      "type": "error"
    },
    {
      "inputs": [
        {
          "internalType": "address",
          "name": "owner",
          "type": "address"
        }
      ],
      "name": "OwnableInvalidOwner",
      "type": "error"
    },
    {
      "inputs": [
        {
          "internalType": "address",
          "name": "account",
          "type": "address"
        }
      ],
      "name": "OwnableUnauthorizedAccount",
      "type": "error"
    },
    {
      "anonymous": false,
      "inputs": [
        {
          "indexed": true,
          "internalType": "uint256",
          "name": "_id",
          "type": "uint256"
        }
      ],
      "name": "Accept",
      "type": "event"
    },
    {
      "anonymous": false,
      "inputs": [
        {
          "indexed": true,
          "internalType": "uint256",
          "name": "_id",
          "type": "uint256"
        },
        {
          "indexed": true,
          "internalType": "address",
          "name": "_from",
          "type": "address"
        },
        {
          "indexed": false,
          "internalType": "address",
          "name": "_for",
          "type": "address"
        }
      ],
      "name": "Agree",
      "type": "event"
    },
    {
      "anonymous": false,
      "inputs": [
        {
          "indexed": true,
          "internalType": "uint256",
          "name": "_id",
          "type": "uint256"
        }
      ],
      "name": "Decline",
      "type": "event"
    },
    {
      "anonymous": false,
      "inputs": [
        {
          "indexed": true,
          "internalType": "uint256",
          "name": "_id",
          "type": "uint256"
        }
      ],
      "name": "Freeze",
      "type": "event"
    },
    {
      "anonymous": false,
      "inputs": [
        {
          "indexed": true,
          "internalType": "address",
          "name": "previousOwner",
          "type": "address"
        },
        {
          "indexed": true,
          "internalType": "address",
          "name": "newOwner",
          "type": "address"
        }
      ],
      "name": "OwnershipTransferred",
      "type": "event"
    },
    {
      "anonymous": false,
      "inputs": [
        {
          "indexed": true,
          "internalType": "bytes32",
          "name": "role",
          "type": "bytes32"
        },
        {
          "indexed": true,
          "internalType": "bytes32",
          "name": "previousAdminRole",
          "type": "bytes32"
        },
        {
          "indexed": true,
          "internalType": "bytes32",
          "name": "newAdminRole",
          "type": "bytes32"
        }
      ],
      "name": "RoleAdminChanged",
      "type": "event"
    },
    {
      "anonymous": false,
      "inputs": [
        {
          "indexed": true,
          "internalType": "bytes32",
          "name": "role",
          "type": "bytes32"
        },
        {
          "indexed": true,
          "internalType": "address",
          "name": "account",
          "type": "address"
        },
        {
          "indexed": true,
          "internalType": "address",
          "name": "sender",
          "type": "address"
        }
      ],
      "name": "RoleGranted",
      "type": "event"
    },
    {
      "anonymous": false,
      "inputs": [
        {
          "indexed": true,
          "internalType": "bytes32",
          "name": "role",
          "type": "bytes32"
        },
        {
          "indexed": true,
          "internalType": "address",
          "name": "account",
          "type": "address"
        },
        {
          "indexed": true,
          "internalType": "address",
          "name": "sender",
          "type": "address"
        }
      ],
      "name": "RoleRevoked",
      "type": "event"
    },
    {
      "anonymous": false,
      "inputs": [
        {
          "indexed": true,
          "internalType": "address",
          "name": "_to",
          "type": "address"
        },
        {
          "indexed": false,
          "internalType": "uint256",
          "name": "_id",
          "type": "uint256"
        }
      ],
      "name": "Send",
      "type": "event"
    },
    {
      "anonymous": false,
      "inputs": [
        {
          "indexed": true,
          "internalType": "uint256",
          "name": "_id",
          "type": "uint256"
        },
        {
          "indexed": false,
          "internalType": "address",
          "name": "_winner",
          "type": "address"
        }
      ],
      "name": "Win",
      "type": "event"
    },
    {
      "inputs": [],
      "name": "DEFAULT_ADMIN_ROLE",
      "outputs": [
        {
          "internalType": "bytes32",
          "name": "",
          "type": "bytes32"
        }
      ],
      "stateMutability": "view",
      "type": "function"
    },
    {
      "inputs": [],
      "name": "MATCH_MODERATOR",
      "outputs": [
        {
          "internalType": "bytes32",
          "name": "",
          "type": "bytes32"
        }
      ],
      "stateMutability": "view",
      "type": "function"
    },
    {
      "inputs": [],
      "name": "Smashpros",
      "outputs": [
        {
          "internalType": "contract ERC20",
          "name": "",
          "type": "address"
        }
      ],
      "stateMutability": "view",
      "type": "function"
    },
    {
      "inputs": [
        {
          "internalType": "uint256",
          "name": "id",
          "type": "uint256"
        },
        {
          "internalType": "uint256",
          "name": "amount",
          "type": "uint256"
        }
      ],
      "name": "accept",
      "outputs": [
        {
          "internalType": "bool",
          "name": "",
          "type": "bool"
        }
      ],
      "stateMutability": "nonpayable",
      "type": "function"
    },
    {
      "inputs": [
        {
          "internalType": "uint256",
          "name": "id",
          "type": "uint256"
        },
        {
          "internalType": "address",
          "name": "on",
          "type": "address"
        }
      ],
      "name": "agree",
      "outputs": [
        {
          "internalType": "bool",
          "name": "",
          "type": "bool"
        }
      ],
      "stateMutability": "nonpayable",
      "type": "function"
    },
    {
      "inputs": [
        {
          "internalType": "uint256",
          "name": "id",
          "type": "uint256"
        }
      ],
      "name": "decline",
      "outputs": [
        {
          "internalType": "bool",
          "name": "",
          "type": "bool"
        }
      ],
      "stateMutability": "nonpayable",
      "type": "function"
    },
    {
      "inputs": [
        {
          "internalType": "uint256",
          "name": "id",
          "type": "uint256"
        }
      ],
      "name": "emergencyWithdraw",
      "outputs": [],
      "stateMutability": "nonpayable",
      "type": "function"
    },
    {
      "inputs": [
        {
          "internalType": "uint256",
          "name": "id",
          "type": "uint256"
        }
      ],
      "name": "getMatch",
      "outputs": [
        {
          "components": [
            {
              "internalType": "uint256",
              "name": "id",
              "type": "uint256"
            },
            {
              "internalType": "address",
              "name": "initiator",
              "type": "address"
            },
            {
              "internalType": "address",
              "name": "opponent",
              "type": "address"
            },
            {
              "internalType": "address",
              "name": "winner",
              "type": "address"
            },
            {
              "internalType": "uint256",
              "name": "amount",
              "type": "uint256"
            },
            {
              "internalType": "uint256",
              "name": "maxMatches",
              "type": "uint256"
            },
            {
              "internalType": "uint256",
              "name": "initiatorScore",
              "type": "uint256"
            },
            {
              "internalType": "uint256",
              "name": "opponentScore",
              "type": "uint256"
            },
            {
              "internalType": "address",
              "name": "initiatorAgreement",
              "type": "address"
            },
            {
              "internalType": "address",
              "name": "opponentAgreement",
              "type": "address"
            },
            {
              "internalType": "uint256",
              "name": "attempts",
              "type": "uint256"
            },
            {
              "internalType": "bool",
              "name": "frozen",
              "type": "bool"
            },
            {
              "internalType": "enum MatchState",
              "name": "state",
              "type": "uint8"
            }
          ],
          "internalType": "struct Match",
          "name": "",
          "type": "tuple"
        }
      ],
      "stateMutability": "view",
      "type": "function"
    },
    {
      "inputs": [],
      "name": "getMatchs",
      "outputs": [
        {
          "components": [
            {
              "internalType": "uint256",
              "name": "id",
              "type": "uint256"
            },
            {
              "internalType": "address",
              "name": "initiator",
              "type": "address"
            },
            {
              "internalType": "address",
              "name": "opponent",
              "type": "address"
            },
            {
              "internalType": "address",
              "name": "winner",
              "type": "address"
            },
            {
              "internalType": "uint256",
              "name": "amount",
              "type": "uint256"
            },
            {
              "internalType": "uint256",
              "name": "maxMatches",
              "type": "uint256"
            },
            {
              "internalType": "uint256",
              "name": "initiatorScore",
              "type": "uint256"
            },
            {
              "internalType": "uint256",
              "name": "opponentScore",
              "type": "uint256"
            },
            {
              "internalType": "address",
              "name": "initiatorAgreement",
              "type": "address"
            },
            {
              "internalType": "address",
              "name": "opponentAgreement",
              "type": "address"
            },
            {
              "internalType": "uint256",
              "name": "attempts",
              "type": "uint256"
            },
            {
              "internalType": "bool",
              "name": "frozen",
              "type": "bool"
            },
            {
              "internalType": "enum MatchState",
              "name": "state",
              "type": "uint8"
            }
          ],
          "internalType": "struct Match[]",
          "name": "",
          "type": "tuple[]"
        }
      ],
      "stateMutability": "view",
      "type": "function"
    },
    {
      "inputs": [
        {
          "internalType": "bytes32",
          "name": "role",
          "type": "bytes32"
        }
      ],
      "name": "getRoleAdmin",
      "outputs": [
        {
          "internalType": "bytes32",
          "name": "",
          "type": "bytes32"
        }
      ],
      "stateMutability": "view",
      "type": "function"
    },
    {
      "inputs": [
        {
          "internalType": "bytes32",
          "name": "role",
          "type": "bytes32"
        },
        {
          "internalType": "address",
          "name": "account",
          "type": "address"
        }
      ],
      "name": "grantRole",
      "outputs": [],
      "stateMutability": "nonpayable",
      "type": "function"
    },
    {
      "inputs": [
        {
          "internalType": "bytes32",
          "name": "role",
          "type": "bytes32"
        },
        {
          "internalType": "address",
          "name": "account",
          "type": "address"
        }
      ],
      "name": "hasRole",
      "outputs": [
        {
          "internalType": "bool",
          "name": "",
          "type": "bool"
        }
      ],
      "stateMutability": "view",
      "type": "function"
    },
    {
      "inputs": [],
      "name": "maxAgreementAttempts",
      "outputs": [
        {
          "internalType": "uint256",
          "name": "",
          "type": "uint256"
        }
      ],
      "stateMutability": "view",
      "type": "function"
    },
    {
      "inputs": [],
      "name": "owner",
      "outputs": [
        {
          "internalType": "address",
          "name": "",
          "type": "address"
        }
      ],
      "stateMutability": "view",
      "type": "function"
    },
    {
      "inputs": [],
      "name": "renounceOwnership",
      "outputs": [],
      "stateMutability": "nonpayable",
      "type": "function"
    },
    {
      "inputs": [
        {
          "internalType": "bytes32",
          "name": "role",
          "type": "bytes32"
        },
        {
          "internalType": "address",
          "name": "callerConfirmation",
          "type": "address"
        }
      ],
      "name": "renounceRole",
      "outputs": [],
      "stateMutability": "nonpayable",
      "type": "function"
    },
    {
      "inputs": [
        {
          "internalType": "bytes32",
          "name": "role",
          "type": "bytes32"
        },
        {
          "internalType": "address",
          "name": "account",
          "type": "address"
        }
      ],
      "name": "revokeRole",
      "outputs": [],
      "stateMutability": "nonpayable",
      "type": "function"
    },
    {
      "inputs": [
        {
          "internalType": "address",
          "name": "opponent",
          "type": "address"
        },
        {
          "internalType": "uint256",
          "name": "amount",
          "type": "uint256"
        },
        {
          "internalType": "uint256",
          "name": "maxMatches",
          "type": "uint256"
        }
      ],
      "name": "start",
      "outputs": [
        {
          "internalType": "bool",
          "name": "",
          "type": "bool"
        }
      ],
      "stateMutability": "nonpayable",
      "type": "function"
    },
    {
      "inputs": [
        {
          "internalType": "bytes4",
          "name": "interfaceId",
          "type": "bytes4"
        }
      ],
      "name": "supportsInterface",
      "outputs": [
        {
          "internalType": "bool",
          "name": "",
          "type": "bool"
        }
      ],
      "stateMutability": "view",
      "type": "function"
    },
    {
      "inputs": [
        {
          "internalType": "address",
          "name": "newOwner",
          "type": "address"
        }
      ],
      "name": "transferOwnership",
      "outputs": [],
      "stateMutability": "nonpayable",
      "type": "function"
    }
  ],
  "bytecode": "0x60c06040526000600455600360a0908152503480156200001e57600080fd5b506040516200529138038062005291833981810160405281019062000044919062000454565b81600073ffffffffffffffffffffffffffffffffffffffff168173ffffffffffffffffffffffffffffffffffffffff1603620000ba5760006040517f1e4fbdf7000000000000000000000000000000000000000000000000000000008152600401620000b19190620004ac565b60405180910390fd5b620000cb81620001b060201b60201c565b50600073ffffffffffffffffffffffffffffffffffffffff168173ffffffffffffffffffffffffffffffffffffffff16036200013e576040517f08c379a000000000000000000000000000000000000000000000000000000000815260040162000135906200052a565b60405180910390fd5b8073ffffffffffffffffffffffffffffffffffffffff1660808173ffffffffffffffffffffffffffffffffffffffff1681525050620001a77fb112e0c9ec8e3f5cff835bd9eeab690a544692d98f1876a66929cf8426dd820a60001b836200027460201b60201c565b5050506200054c565b60008060009054906101000a900473ffffffffffffffffffffffffffffffffffffffff169050816000806101000a81548173ffffffffffffffffffffffffffffffffffffffff021916908373ffffffffffffffffffffffffffffffffffffffff1602179055508173ffffffffffffffffffffffffffffffffffffffff168173ffffffffffffffffffffffffffffffffffffffff167f8be0079c531659141344cd1fd0a4f28419497f9722a3daafe3b4186f6b6457e060405160405180910390a35050565b60006200028883836200037760201b60201c565b6200036c57600180600085815260200190815260200160002060000160008473ffffffffffffffffffffffffffffffffffffffff1673ffffffffffffffffffffffffffffffffffffffff16815260200190815260200160002060006101000a81548160ff02191690831515021790555062000308620003e260201b60201c565b73ffffffffffffffffffffffffffffffffffffffff168273ffffffffffffffffffffffffffffffffffffffff16847f2f8788117e7eff1d82e926ec794901d17c78024a50270940304540a733656f0d60405160405180910390a46001905062000371565b600090505b92915050565b60006001600084815260200190815260200160002060000160008373ffffffffffffffffffffffffffffffffffffffff1673ffffffffffffffffffffffffffffffffffffffff16815260200190815260200160002060009054906101000a900460ff16905092915050565b600033905090565b600080fd5b600073ffffffffffffffffffffffffffffffffffffffff82169050919050565b60006200041c82620003ef565b9050919050565b6200042e816200040f565b81146200043a57600080fd5b50565b6000815190506200044e8162000423565b92915050565b600080604083850312156200046e576200046d620003ea565b5b60006200047e858286016200043d565b925050602062000491858286016200043d565b9150509250929050565b620004a6816200040f565b82525050565b6000602082019050620004c360008301846200049b565b92915050565b600082825260208201905092915050565b7f4e6565647320746f6b656e206164647265737300000000000000000000000000600082015250565b600062000512601383620004c9565b91506200051f82620004da565b602082019050919050565b60006020820190508181036000830152620005458162000503565b9050919050565b60805160a051614ce7620005aa60003960008181611ccc015281816126430152612c770152600081816106c20152818161079d015281816114a20152818161157e01528181611a33015281816125fd0152612eb00152614ce76000f3fe608060405234801561001057600080fd5b506004361061012c5760003560e01c8063715018a6116100ad578063a217fddf11610071578063a217fddf14610369578063af9507b814610387578063d547741f146103a5578063d58d610d146103c1578063f2fde38b146103df5761012c565b8063715018a6146102c35780638d23e6ba146102cd5780638da5cb5b146102eb57806391d1485414610309578063a0355f4e146103395761012c565b80632f2ff15d116100f45780632f2ff15d1461020f57806336568abe1461022b5780633d092b3d1461024757806350f8a01e146102775780635312ea8e146102a75761012c565b806301ffc9a71461013157806309358479146101615780631919b032146101915780631cdef3ed146101af578063248a9ca3146101df575b600080fd5b61014b600480360381019061014691906137d7565b6103fb565b604051610158919061381f565b60405180910390f35b61017b60048036038101906101769190613870565b610475565b604051610188919061381f565b60405180910390f35b6101996108bd565b6040516101a691906138c9565b60405180910390f35b6101c960048036038101906101c49190613942565b6108e4565b6040516101d6919061381f565b60405180910390f35b6101f960048036038101906101f491906139ae565b611004565b60405161020691906138c9565b60405180910390f35b610229600480360381019061022491906139db565b611024565b005b610245600480360381019061024091906139db565b611046565b005b610261600480360381019061025c9190613a1b565b6110c1565b60405161026e9190613bf7565b60405180910390f35b610291600480360381019061028c9190613c13565b61132f565b60405161029e919061381f565b60405180910390f35b6102c160048036038101906102bc9190613a1b565b611b2d565b005b6102cb611f83565b005b6102d5611f97565b6040516102e29190613e21565b60405180910390f35b6102f3612189565b6040516103009190613e52565b60405180910390f35b610323600480360381019061031e91906139db565b6121b2565b604051610330919061381f565b60405180910390f35b610353600480360381019061034e9190613a1b565b61221d565b604051610360919061381f565b60405180910390f35b6103716125f4565b60405161037e91906138c9565b60405180910390f35b61038f6125fb565b60405161039c9190613ecc565b60405180910390f35b6103bf60048036038101906103ba91906139db565b61261f565b005b6103c9612641565b6040516103d69190613ef6565b60405180910390f35b6103f960048036038101906103f49190613f11565b612665565b005b60007f7965db0b000000000000000000000000000000000000000000000000000000007bffffffffffffffffffffffffffffffffffffffffffffffffffffffff1916827bffffffffffffffffffffffffffffffffffffffffffffffffffffffff1916148061046e575061046d826126eb565b5b9050919050565b600082600081036104bb576040517f08c379a00000000000000000000000000000000000000000000000000000000081526004016104b290613f9b565b60405180910390fd5b600073ffffffffffffffffffffffffffffffffffffffff166002600083815260200190815260200160002060010160009054906101000a900473ffffffffffffffffffffffffffffffffffffffff1673ffffffffffffffffffffffffffffffffffffffff16141580156105915750600073ffffffffffffffffffffffffffffffffffffffff166002600083815260200190815260200160002060020160009054906101000a900473ffffffffffffffffffffffffffffffffffffffff1673ffffffffffffffffffffffffffffffffffffffff1614155b6105d0576040517f08c379a00000000000000000000000000000000000000000000000000000000081526004016105c790614007565b60405180910390fd5b60006002600086815260200190815260200160002090503373ffffffffffffffffffffffffffffffffffffffff168160020160009054906101000a900473ffffffffffffffffffffffffffffffffffffffff1673ffffffffffffffffffffffffffffffffffffffff1614610679576040517f08c379a000000000000000000000000000000000000000000000000000000000815260040161067090614073565b60405180910390fd5b838160040154146106bf576040517f08c379a00000000000000000000000000000000000000000000000000000000081526004016106b690614105565b60405180910390fd5b837f000000000000000000000000000000000000000000000000000000000000000073ffffffffffffffffffffffffffffffffffffffff166370a08231336040518263ffffffff1660e01b81526004016107199190613e52565b602060405180830381865afa158015610736573d6000803e3d6000fd5b505050506040513d601f19601f8201168201806040525081019061075a919061413a565b101561079b576040517f08c379a0000000000000000000000000000000000000000000000000000000008152600401610792906141b3565b60405180910390fd5b7f000000000000000000000000000000000000000000000000000000000000000073ffffffffffffffffffffffffffffffffffffffff166323b872dd3330876040518463ffffffff1660e01b81526004016107f8939291906141d3565b6020604051808303816000875af1158015610817573d6000803e3d6000fd5b505050506040513d601f19601f8201168201806040525081019061083b9190614236565b50838160040160008282546108509190614292565b92505081905550600181600b0160016101000a81548160ff0219169083600581111561087f5761087e613a75565b5b0217905550847fa573f6e77cec35b255a3fb35b673473461473d63e293d50c5eba0d7d1894238360405160405180910390a260019250505092915050565b7fb112e0c9ec8e3f5cff835bd9eeab690a544692d98f1876a66929cf8426dd820a60001b81565b6000826000810361092a576040517f08c379a000000000000000000000000000000000000000000000000000000000815260040161092190613f9b565b60405180910390fd5b600073ffffffffffffffffffffffffffffffffffffffff166002600083815260200190815260200160002060010160009054906101000a900473ffffffffffffffffffffffffffffffffffffffff1673ffffffffffffffffffffffffffffffffffffffff1614158015610a005750600073ffffffffffffffffffffffffffffffffffffffff166002600083815260200190815260200160002060020160009054906101000a900473ffffffffffffffffffffffffffffffffffffffff1673ffffffffffffffffffffffffffffffffffffffff1614155b610a3f576040517f08c379a0000000000000000000000000000000000000000000000000000000008152600401610a3690614007565b60405180910390fd5b833373ffffffffffffffffffffffffffffffffffffffff166002600083815260200190815260200160002060010160009054906101000a900473ffffffffffffffffffffffffffffffffffffffff1673ffffffffffffffffffffffffffffffffffffffff161480610b1157503373ffffffffffffffffffffffffffffffffffffffff166002600083815260200190815260200160002060020160009054906101000a900473ffffffffffffffffffffffffffffffffffffffff1673ffffffffffffffffffffffffffffffffffffffff16145b610b50576040517f08c379a0000000000000000000000000000000000000000000000000000000008152600401610b4790614312565b60405180910390fd5b600060026000878152602001908152602001600020905060016005811115610b7b57610b7a613a75565b5b81600b0160019054906101000a900460ff166005811115610b9f57610b9e613a75565b5b1480610be0575060026005811115610bba57610bb9613a75565b5b81600b0160019054906101000a900460ff166005811115610bde57610bdd613a75565b5b145b610c1f576040517f08c379a0000000000000000000000000000000000000000000000000000000008152600401610c16906143a4565b60405180910390fd5b60026005811115610c3357610c32613a75565b5b81600b0160019054906101000a900460ff166005811115610c5757610c56613a75565b5b14610c8a57600281600b0160016101000a81548160ff02191690836005811115610c8457610c83613a75565b5b02179055505b3373ffffffffffffffffffffffffffffffffffffffff168160010160009054906101000a900473ffffffffffffffffffffffffffffffffffffffff1673ffffffffffffffffffffffffffffffffffffffff1603610e4257848160080160006101000a81548173ffffffffffffffffffffffffffffffffffffffff021916908373ffffffffffffffffffffffffffffffffffffffff1602179055503373ffffffffffffffffffffffffffffffffffffffff16867f9d12ceb128ca0829e84f9658274a4882aa6155fb699c580402873ea5605679ed87604051610d6b9190613e52565b60405180910390a3600073ffffffffffffffffffffffffffffffffffffffff168160090160009054906101000a900473ffffffffffffffffffffffffffffffffffffffff1673ffffffffffffffffffffffffffffffffffffffff1614610e3d578473ffffffffffffffffffffffffffffffffffffffff168160090160009054906101000a900473ffffffffffffffffffffffffffffffffffffffff1673ffffffffffffffffffffffffffffffffffffffff1603610e3257610e2c8686612755565b50610e3c565b610e3b86612b8d565b5b5b610ff7565b3373ffffffffffffffffffffffffffffffffffffffff168160020160009054906101000a900473ffffffffffffffffffffffffffffffffffffffff1673ffffffffffffffffffffffffffffffffffffffff1603610ff657848160090160006101000a81548173ffffffffffffffffffffffffffffffffffffffff021916908373ffffffffffffffffffffffffffffffffffffffff1602179055503373ffffffffffffffffffffffffffffffffffffffff16867f9d12ceb128ca0829e84f9658274a4882aa6155fb699c580402873ea5605679ed87604051610f239190613e52565b60405180910390a3600073ffffffffffffffffffffffffffffffffffffffff168160080160009054906101000a900473ffffffffffffffffffffffffffffffffffffffff1673ffffffffffffffffffffffffffffffffffffffff1614610ff5578473ffffffffffffffffffffffffffffffffffffffff168160080160009054906101000a900473ffffffffffffffffffffffffffffffffffffffff1673ffffffffffffffffffffffffffffffffffffffff1603610fea57610fe48686612755565b50610ff4565b610ff386612b8d565b5b5b5b5b6001935050505092915050565b600060016000838152602001908152602001600020600101549050919050565b61102d82611004565b61103681612cae565b6110408383612cc2565b50505050565b61104e612db3565b73ffffffffffffffffffffffffffffffffffffffff168173ffffffffffffffffffffffffffffffffffffffff16146110b2576040517f6697b23200000000000000000000000000000000000000000000000000000000815260040160405180910390fd5b6110bc8282612dbb565b505050565b6110c9613686565b60026000838152602001908152602001600020604051806101a0016040529081600082015481526020016001820160009054906101000a900473ffffffffffffffffffffffffffffffffffffffff1673ffffffffffffffffffffffffffffffffffffffff1673ffffffffffffffffffffffffffffffffffffffff1681526020016002820160009054906101000a900473ffffffffffffffffffffffffffffffffffffffff1673ffffffffffffffffffffffffffffffffffffffff1673ffffffffffffffffffffffffffffffffffffffff1681526020016003820160009054906101000a900473ffffffffffffffffffffffffffffffffffffffff1673ffffffffffffffffffffffffffffffffffffffff1673ffffffffffffffffffffffffffffffffffffffff168152602001600482015481526020016005820154815260200160068201548152602001600782015481526020016008820160009054906101000a900473ffffffffffffffffffffffffffffffffffffffff1673ffffffffffffffffffffffffffffffffffffffff1673ffffffffffffffffffffffffffffffffffffffff1681526020016009820160009054906101000a900473ffffffffffffffffffffffffffffffffffffffff1673ffffffffffffffffffffffffffffffffffffffff1673ffffffffffffffffffffffffffffffffffffffff168152602001600a8201548152602001600b820160009054906101000a900460ff16151515158152602001600b820160019054906101000a900460ff16600581111561131257611311613a75565b5b600581111561132457611323613a75565b5b815250509050919050565b60008073ffffffffffffffffffffffffffffffffffffffff168473ffffffffffffffffffffffffffffffffffffffff160361139f576040517f08c379a000000000000000000000000000000000000000000000000000000000815260040161139690614436565b60405180910390fd5b3373ffffffffffffffffffffffffffffffffffffffff168473ffffffffffffffffffffffffffffffffffffffff160361140d576040517f08c379a0000000000000000000000000000000000000000000000000000000008152600401611404906144c8565b60405180910390fd5b600060028361141c9190614517565b0361145c576040517f08c379a000000000000000000000000000000000000000000000000000000000815260040161145390614594565b60405180910390fd5b6000831161149f576040517f08c379a000000000000000000000000000000000000000000000000000000000815260040161149690614600565b60405180910390fd5b827f000000000000000000000000000000000000000000000000000000000000000073ffffffffffffffffffffffffffffffffffffffff166370a08231336040518263ffffffff1660e01b81526004016114f99190613e52565b602060405180830381865afa158015611516573d6000803e3d6000fd5b505050506040513d601f19601f8201168201806040525081019061153a919061413a565b101561157b576040517f08c379a0000000000000000000000000000000000000000000000000000000008152600401611572906141b3565b60405180910390fd5b827f000000000000000000000000000000000000000000000000000000000000000073ffffffffffffffffffffffffffffffffffffffff1663dd62ed3e33306040518363ffffffff1660e01b81526004016115d7929190614620565b602060405180830381865afa1580156115f4573d6000803e3d6000fd5b505050506040513d601f19601f82011682018060405250810190611618919061413a565b1015611659576040517f08c379a0000000000000000000000000000000000000000000000000000000008152600401611650906146bb565b60405180910390fd5b6004600081548092919061166c906146db565b9190505550604051806101a0016040528060045481526020013373ffffffffffffffffffffffffffffffffffffffff1681526020018573ffffffffffffffffffffffffffffffffffffffff168152602001600073ffffffffffffffffffffffffffffffffffffffff1681526020018481526020018381526020016000815260200160008152602001600073ffffffffffffffffffffffffffffffffffffffff168152602001600073ffffffffffffffffffffffffffffffffffffffff168152602001600081526020016000151581526020016000600581111561175257611751613a75565b5b8152506002600060045481526020019081526020016000206000820151816000015560208201518160010160006101000a81548173ffffffffffffffffffffffffffffffffffffffff021916908373ffffffffffffffffffffffffffffffffffffffff16021790555060408201518160020160006101000a81548173ffffffffffffffffffffffffffffffffffffffff021916908373ffffffffffffffffffffffffffffffffffffffff16021790555060608201518160030160006101000a81548173ffffffffffffffffffffffffffffffffffffffff021916908373ffffffffffffffffffffffffffffffffffffffff1602179055506080820151816004015560a0820151816005015560c0820151816006015560e082015181600701556101008201518160080160006101000a81548173ffffffffffffffffffffffffffffffffffffffff021916908373ffffffffffffffffffffffffffffffffffffffff1602179055506101208201518160090160006101000a81548173ffffffffffffffffffffffffffffffffffffffff021916908373ffffffffffffffffffffffffffffffffffffffff16021790555061014082015181600a015561016082015181600b0160006101000a81548160ff02191690831515021790555061018082015181600b0160016101000a81548160ff0219169083600581111561195957611958613a75565b5b0217905550905050600360003373ffffffffffffffffffffffffffffffffffffffff1673ffffffffffffffffffffffffffffffffffffffff1681526020019081526020016000206004549080600181540180825580915050600190039060005260206000200160009091909190915055600360008573ffffffffffffffffffffffffffffffffffffffff1673ffffffffffffffffffffffffffffffffffffffff16815260200190815260200160002060045490806001815401808255809150506001900390600052602060002001600090919091909150557f000000000000000000000000000000000000000000000000000000000000000073ffffffffffffffffffffffffffffffffffffffff166323b872dd3330866040518463ffffffff1660e01b8152600401611a8e939291906141d3565b6020604051808303816000875af1158015611aad573d6000803e3d6000fd5b505050506040513d601f19601f82011682018060405250810190611ad19190614236565b508373ffffffffffffffffffffffffffffffffffffffff167f30a3c50752f2552dcc2b93f5b96866280816a986c0c0408cb6778b9fa198288f600454604051611b1a9190613ef6565b60405180910390a2600190509392505050565b7fb112e0c9ec8e3f5cff835bd9eeab690a544692d98f1876a66929cf8426dd820a60001b611b5a81612cae565b8160008103611b9e576040517f08c379a0000000000000000000000000000000000000000000000000000000008152600401611b9590613f9b565b60405180910390fd5b600073ffffffffffffffffffffffffffffffffffffffff166002600083815260200190815260200160002060010160009054906101000a900473ffffffffffffffffffffffffffffffffffffffff1673ffffffffffffffffffffffffffffffffffffffff1614158015611c745750600073ffffffffffffffffffffffffffffffffffffffff166002600083815260200190815260200160002060020160009054906101000a900473ffffffffffffffffffffffffffffffffffffffff1673ffffffffffffffffffffffffffffffffffffffff1614155b611cb3576040517f08c379a0000000000000000000000000000000000000000000000000000000008152600401611caa90614007565b60405180910390fd5b60006002600085815260200190815260200160002090507f000000000000000000000000000000000000000000000000000000000000000081600a01541015611d31576040517f08c379a0000000000000000000000000000000000000000000000000000000008152600401611d2890614795565b60405180910390fd5b6001151581600b0160009054906101000a900460ff16151514611d89576040517f08c379a0000000000000000000000000000000000000000000000000000000008152600401611d8090614827565b60405180910390fd5b60046005811115611d9d57611d9c613a75565b5b81600b0160019054906101000a900460ff166005811115611dc157611dc0613a75565b5b14611e01576040517f08c379a0000000000000000000000000000000000000000000000000000000008152600401611df890614827565b60405180910390fd5b6000600280600087815260200190815260200160002060040154611e259190614847565b9050611e558260010160009054906101000a900473ffffffffffffffffffffffffffffffffffffffff1682612eae565b611e838260020160009054906101000a900473ffffffffffffffffffffffffffffffffffffffff1682612eae565b600582600b0160016101000a81548160ff02191690836005811115611eab57611eaa613a75565b5b021790555060008260080160006101000a81548173ffffffffffffffffffffffffffffffffffffffff021916908373ffffffffffffffffffffffffffffffffffffffff16021790555060008260090160006101000a81548173ffffffffffffffffffffffffffffffffffffffff021916908373ffffffffffffffffffffffffffffffffffffffff16021790555060008260030160006101000a81548173ffffffffffffffffffffffffffffffffffffffff021916908373ffffffffffffffffffffffffffffffffffffffff1602179055505050505050565b611f8b612f51565b611f956000612fd8565b565b60606000600360003373ffffffffffffffffffffffffffffffffffffffff1673ffffffffffffffffffffffffffffffffffffffff1681526020019081526020016000208054905067ffffffffffffffff811115611ff757611ff6614878565b5b60405190808252806020026020018201604052801561203057816020015b61201d613686565b8152602001906001900390816120155790505b50905060005b600360003373ffffffffffffffffffffffffffffffffffffffff1673ffffffffffffffffffffffffffffffffffffffff16815260200190815260200160002080549050811015612181573073ffffffffffffffffffffffffffffffffffffffff16633d092b3d600360003373ffffffffffffffffffffffffffffffffffffffff1673ffffffffffffffffffffffffffffffffffffffff16815260200190815260200160002083815481106120ed576120ec6148a7565b5b90600052602060002001546040518263ffffffff1660e01b81526004016121149190613ef6565b6101a060405180830381865afa158015612132573d6000803e3d6000fd5b505050506040513d601f19601f820116820180604052508101906121569190614aaa565b828281518110612169576121686148a7565b5b60200260200101819052508080600101915050612036565b508091505090565b60008060009054906101000a900473ffffffffffffffffffffffffffffffffffffffff16905090565b60006001600084815260200190815260200160002060000160008373ffffffffffffffffffffffffffffffffffffffff1673ffffffffffffffffffffffffffffffffffffffff16815260200190815260200160002060009054906101000a900460ff16905092915050565b60008160008103612263576040517f08c379a000000000000000000000000000000000000000000000000000000000815260040161225a90613f9b565b60405180910390fd5b600073ffffffffffffffffffffffffffffffffffffffff166002600083815260200190815260200160002060010160009054906101000a900473ffffffffffffffffffffffffffffffffffffffff1673ffffffffffffffffffffffffffffffffffffffff16141580156123395750600073ffffffffffffffffffffffffffffffffffffffff166002600083815260200190815260200160002060020160009054906101000a900473ffffffffffffffffffffffffffffffffffffffff1673ffffffffffffffffffffffffffffffffffffffff1614155b612378576040517f08c379a000000000000000000000000000000000000000000000000000000000815260040161236f90614007565b60405180910390fd5b60006002600085815260200190815260200160002090503373ffffffffffffffffffffffffffffffffffffffff168160020160009054906101000a900473ffffffffffffffffffffffffffffffffffffffff1673ffffffffffffffffffffffffffffffffffffffff1614612421576040517f08c379a000000000000000000000000000000000000000000000000000000000815260040161241890614073565b60405180910390fd5b6124538160010160009054906101000a900473ffffffffffffffffffffffffffffffffffffffff168260040154612eae565b61245d338561309c565b61248b8160010160009054906101000a900473ffffffffffffffffffffffffffffffffffffffff168561309c565b600260008581526020019081526020016000206000808201600090556001820160006101000a81549073ffffffffffffffffffffffffffffffffffffffff02191690556002820160006101000a81549073ffffffffffffffffffffffffffffffffffffffff02191690556003820160006101000a81549073ffffffffffffffffffffffffffffffffffffffff021916905560048201600090556005820160009055600682016000905560078201600090556008820160006101000a81549073ffffffffffffffffffffffffffffffffffffffff02191690556009820160006101000a81549073ffffffffffffffffffffffffffffffffffffffff0219169055600a820160009055600b820160006101000a81549060ff0219169055600b820160016101000a81549060ff02191690555050837f583c6f06212a96c23c4eb2cf0aba351954f05e6e7b046d95e7ec711d2e4398bc60405160405180910390a2600192505050919050565b6000801b81565b7f000000000000000000000000000000000000000000000000000000000000000081565b61262882611004565b61263181612cae565b61263b8383612dbb565b50505050565b7f000000000000000000000000000000000000000000000000000000000000000081565b61266d612f51565b600073ffffffffffffffffffffffffffffffffffffffff168173ffffffffffffffffffffffffffffffffffffffff16036126df5760006040517f1e4fbdf70000000000000000000000000000000000000000000000000000000081526004016126d69190613e52565b60405180910390fd5b6126e881612fd8565b50565b60007f01ffc9a7000000000000000000000000000000000000000000000000000000007bffffffffffffffffffffffffffffffffffffffffffffffffffffffff1916827bffffffffffffffffffffffffffffffffffffffffffffffffffffffff1916149050919050565b6000823373ffffffffffffffffffffffffffffffffffffffff166002600083815260200190815260200160002060010160009054906101000a900473ffffffffffffffffffffffffffffffffffffffff1673ffffffffffffffffffffffffffffffffffffffff16148061282957503373ffffffffffffffffffffffffffffffffffffffff166002600083815260200190815260200160002060020160009054906101000a900473ffffffffffffffffffffffffffffffffffffffff1673ffffffffffffffffffffffffffffffffffffffff16145b612868576040517f08c379a000000000000000000000000000000000000000000000000000000000815260040161285f90614312565b60405180910390fd5b6000600260008681526020019081526020016000209050600073ffffffffffffffffffffffffffffffffffffffff168473ffffffffffffffffffffffffffffffffffffffff16036128ee576040517f08c379a00000000000000000000000000000000000000000000000000000000081526004016128e590614b4a565b60405180910390fd5b6002600581111561290257612901613a75565b5b81600b0160019054906101000a900460ff16600581111561292657612925613a75565b5b14612966576040517f08c379a000000000000000000000000000000000000000000000000000000000815260040161295d90614bdc565b60405180910390fd5b600060016002836005015461297b9190614847565b6129859190614292565b90508473ffffffffffffffffffffffffffffffffffffffff168260010160009054906101000a900473ffffffffffffffffffffffffffffffffffffffff1673ffffffffffffffffffffffffffffffffffffffff1603612a255760018260060160008282546129f39190614292565b9250508190555081600601548103612a2057612a1486868460040154613312565b50600193505050612b86565b612ac0565b8473ffffffffffffffffffffffffffffffffffffffff168260020160009054906101000a900473ffffffffffffffffffffffffffffffffffffffff1673ffffffffffffffffffffffffffffffffffffffff1603612abf576001826007016000828254612a919190614292565b9250508190555081600701548103612abe57612ab286868460040154613312565b50600193505050612b86565b5b5b600182600b0160016101000a81548160ff02191690836005811115612ae857612ae7613a75565b5b021790555060008260080160006101000a81548173ffffffffffffffffffffffffffffffffffffffff021916908373ffffffffffffffffffffffffffffffffffffffff16021790555060008260090160006101000a81548173ffffffffffffffffffffffffffffffffffffffff021916908373ffffffffffffffffffffffffffffffffffffffff160217905550600082600a01819055506001935050505b5092915050565b6000600260008381526020019081526020016000209050600281600b0160016101000a81548160ff02191690836005811115612bcc57612bcb613a75565b5b021790555060008160080160006101000a81548173ffffffffffffffffffffffffffffffffffffffff021916908373ffffffffffffffffffffffffffffffffffffffff16021790555060008160090160006101000a81548173ffffffffffffffffffffffffffffffffffffffff021916908373ffffffffffffffffffffffffffffffffffffffff160217905550600181600a016000828254612c6e9190614292565b925050819055507f000000000000000000000000000000000000000000000000000000000000000081600a015403612caa57612ca982613597565b5b5050565b612cbf81612cba612db3565b613635565b50565b6000612cce83836121b2565b612da857600180600085815260200190815260200160002060000160008473ffffffffffffffffffffffffffffffffffffffff1673ffffffffffffffffffffffffffffffffffffffff16815260200190815260200160002060006101000a81548160ff021916908315150217905550612d45612db3565b73ffffffffffffffffffffffffffffffffffffffff168273ffffffffffffffffffffffffffffffffffffffff16847f2f8788117e7eff1d82e926ec794901d17c78024a50270940304540a733656f0d60405160405180910390a460019050612dad565b600090505b92915050565b600033905090565b6000612dc783836121b2565b15612ea35760006001600085815260200190815260200160002060000160008473ffffffffffffffffffffffffffffffffffffffff1673ffffffffffffffffffffffffffffffffffffffff16815260200190815260200160002060006101000a81548160ff021916908315150217905550612e40612db3565b73ffffffffffffffffffffffffffffffffffffffff168273ffffffffffffffffffffffffffffffffffffffff16847ff6391f5c32d9c69d2a47ea670b442974b53935d1edc7fd64eb21e047a839171b60405160405180910390a460019050612ea8565b600090505b92915050565b7f000000000000000000000000000000000000000000000000000000000000000073ffffffffffffffffffffffffffffffffffffffff1663a9059cbb83836040518363ffffffff1660e01b8152600401612f09929190614bfc565b6020604051808303816000875af1158015612f28573d6000803e3d6000fd5b505050506040513d601f19601f82011682018060405250810190612f4c9190614236565b505050565b612f59612db3565b73ffffffffffffffffffffffffffffffffffffffff16612f77612189565b73ffffffffffffffffffffffffffffffffffffffff1614612fd657612f9a612db3565b6040517f118cdaa7000000000000000000000000000000000000000000000000000000008152600401612fcd9190613e52565b60405180910390fd5b565b60008060009054906101000a900473ffffffffffffffffffffffffffffffffffffffff169050816000806101000a81548173ffffffffffffffffffffffffffffffffffffffff021916908373ffffffffffffffffffffffffffffffffffffffff1602179055508173ffffffffffffffffffffffffffffffffffffffff168173ffffffffffffffffffffffffffffffffffffffff167f8be0079c531659141344cd1fd0a4f28419497f9722a3daafe3b4186f6b6457e060405160405180910390a35050565b600073ffffffffffffffffffffffffffffffffffffffff168273ffffffffffffffffffffffffffffffffffffffff16036130d557600080fd5b600081036130e257600080fd5b60005b600360008473ffffffffffffffffffffffffffffffffffffffff1673ffffffffffffffffffffffffffffffffffffffff1681526020019081526020016000208054905081101561330d5781600360008573ffffffffffffffffffffffffffffffffffffffff1673ffffffffffffffffffffffffffffffffffffffff1681526020019081526020016000208281548110613181576131806148a7565b5b90600052602060002001540361330057600360008473ffffffffffffffffffffffffffffffffffffffff1673ffffffffffffffffffffffffffffffffffffffff1681526020019081526020016000206001600360008673ffffffffffffffffffffffffffffffffffffffff1673ffffffffffffffffffffffffffffffffffffffff1681526020019081526020016000208054905061321f9190614c25565b815481106132305761322f6148a7565b5b9060005260206000200154600360008573ffffffffffffffffffffffffffffffffffffffff1673ffffffffffffffffffffffffffffffffffffffff168152602001908152602001600020828154811061328c5761328b6148a7565b5b9060005260206000200181905550600360008473ffffffffffffffffffffffffffffffffffffffff1673ffffffffffffffffffffffffffffffffffffffff1681526020019081526020016000208054806132e9576132e8614c59565b5b600190038181906000526020600020016000905590555b80806001019150506130e5565b505050565b6000833373ffffffffffffffffffffffffffffffffffffffff166002600083815260200190815260200160002060010160009054906101000a900473ffffffffffffffffffffffffffffffffffffffff1673ffffffffffffffffffffffffffffffffffffffff1614806133e657503373ffffffffffffffffffffffffffffffffffffffff166002600083815260200190815260200160002060020160009054906101000a900473ffffffffffffffffffffffffffffffffffffffff1673ffffffffffffffffffffffffffffffffffffffff16145b613425576040517f08c379a000000000000000000000000000000000000000000000000000000000815260040161341c90614312565b60405180910390fd5b60006002600087815260200190815260200160002090506134468585612eae565b600381600b0160016101000a81548160ff0219169083600581111561346e5761346d613a75565b5b021790555060008160080160006101000a81548173ffffffffffffffffffffffffffffffffffffffff021916908373ffffffffffffffffffffffffffffffffffffffff16021790555060008160090160006101000a81548173ffffffffffffffffffffffffffffffffffffffff021916908373ffffffffffffffffffffffffffffffffffffffff160217905550600081600a0181905550848160030160006101000a81548173ffffffffffffffffffffffffffffffffffffffff021916908373ffffffffffffffffffffffffffffffffffffffff16021790555060008160040181905550857f5099dd6dac0a84e5cc1d9629b2e349cc5123e62fff80006667b71ca663638fc8866040516135829190613e52565b60405180910390a26001925050509392505050565b600460026000838152602001908152602001600020600b0160016101000a81548160ff021916908360058111156135d1576135d0613a75565b5b0217905550600160026000838152602001908152602001600020600b0160006101000a81548160ff021916908315150217905550807f779fbee689bbd6f006ecb329206d35c7db7380f9837a8826fb8dc5cfcd3d33dd60405160405180910390a250565b61363f82826121b2565b6136825780826040517fe2517d3f000000000000000000000000000000000000000000000000000000008152600401613679929190614c88565b60405180910390fd5b5050565b604051806101a0016040528060008152602001600073ffffffffffffffffffffffffffffffffffffffff168152602001600073ffffffffffffffffffffffffffffffffffffffff168152602001600073ffffffffffffffffffffffffffffffffffffffff16815260200160008152602001600081526020016000815260200160008152602001600073ffffffffffffffffffffffffffffffffffffffff168152602001600073ffffffffffffffffffffffffffffffffffffffff168152602001600081526020016000151581526020016000600581111561376a57613769613a75565b5b81525090565b6000604051905090565b600080fd5b60007fffffffff0000000000000000000000000000000000000000000000000000000082169050919050565b6137b48161377f565b81146137bf57600080fd5b50565b6000813590506137d1816137ab565b92915050565b6000602082840312156137ed576137ec61377a565b5b60006137fb848285016137c2565b91505092915050565b60008115159050919050565b61381981613804565b82525050565b60006020820190506138346000830184613810565b92915050565b6000819050919050565b61384d8161383a565b811461385857600080fd5b50565b60008135905061386a81613844565b92915050565b600080604083850312156138875761388661377a565b5b60006138958582860161385b565b92505060206138a68582860161385b565b9150509250929050565b6000819050919050565b6138c3816138b0565b82525050565b60006020820190506138de60008301846138ba565b92915050565b600073ffffffffffffffffffffffffffffffffffffffff82169050919050565b600061390f826138e4565b9050919050565b61391f81613904565b811461392a57600080fd5b50565b60008135905061393c81613916565b92915050565b600080604083850312156139595761395861377a565b5b60006139678582860161385b565b92505060206139788582860161392d565b9150509250929050565b61398b816138b0565b811461399657600080fd5b50565b6000813590506139a881613982565b92915050565b6000602082840312156139c4576139c361377a565b5b60006139d284828501613999565b91505092915050565b600080604083850312156139f2576139f161377a565b5b6000613a0085828601613999565b9250506020613a118582860161392d565b9150509250929050565b600060208284031215613a3157613a3061377a565b5b6000613a3f8482850161385b565b91505092915050565b613a518161383a565b82525050565b613a6081613904565b82525050565b613a6f81613804565b82525050565b7f4e487b7100000000000000000000000000000000000000000000000000000000600052602160045260246000fd5b60068110613ab557613ab4613a75565b5b50565b6000819050613ac682613aa4565b919050565b6000613ad682613ab8565b9050919050565b613ae681613acb565b82525050565b6101a082016000820151613b036000850182613a48565b506020820151613b166020850182613a57565b506040820151613b296040850182613a57565b506060820151613b3c6060850182613a57565b506080820151613b4f6080850182613a48565b5060a0820151613b6260a0850182613a48565b5060c0820151613b7560c0850182613a48565b5060e0820151613b8860e0850182613a48565b50610100820151613b9d610100850182613a57565b50610120820151613bb2610120850182613a57565b50610140820151613bc7610140850182613a48565b50610160820151613bdc610160850182613a66565b50610180820151613bf1610180850182613add565b50505050565b60006101a082019050613c0d6000830184613aec565b92915050565b600080600060608486031215613c2c57613c2b61377a565b5b6000613c3a8682870161392d565b9350506020613c4b8682870161385b565b9250506040613c5c8682870161385b565b9150509250925092565b600081519050919050565b600082825260208201905092915050565b6000819050602082019050919050565b6101a082016000820151613ca96000850182613a48565b506020820151613cbc6020850182613a57565b506040820151613ccf6040850182613a57565b506060820151613ce26060850182613a57565b506080820151613cf56080850182613a48565b5060a0820151613d0860a0850182613a48565b5060c0820151613d1b60c0850182613a48565b5060e0820151613d2e60e0850182613a48565b50610100820151613d43610100850182613a57565b50610120820151613d58610120850182613a57565b50610140820151613d6d610140850182613a48565b50610160820151613d82610160850182613a66565b50610180820151613d97610180850182613add565b50505050565b6000613da98383613c92565b6101a08301905092915050565b6000602082019050919050565b6000613dce82613c66565b613dd88185613c71565b9350613de383613c82565b8060005b83811015613e14578151613dfb8882613d9d565b9750613e0683613db6565b925050600181019050613de7565b5085935050505092915050565b60006020820190508181036000830152613e3b8184613dc3565b905092915050565b613e4c81613904565b82525050565b6000602082019050613e676000830184613e43565b92915050565b6000819050919050565b6000613e92613e8d613e88846138e4565b613e6d565b6138e4565b9050919050565b6000613ea482613e77565b9050919050565b6000613eb682613e99565b9050919050565b613ec681613eab565b82525050565b6000602082019050613ee16000830184613ebd565b92915050565b613ef08161383a565b82525050565b6000602082019050613f0b6000830184613ee7565b92915050565b600060208284031215613f2757613f2661377a565b5b6000613f358482850161392d565b91505092915050565b600082825260208201905092915050565b7f4d61746368206964206d757374206e6f74206265206e756c6c00000000000000600082015250565b6000613f85601983613f3e565b9150613f9082613f4f565b602082019050919050565b60006020820190508181036000830152613fb481613f78565b9050919050565b7f4d61746368206d75737420657869737473000000000000000000000000000000600082015250565b6000613ff1601183613f3e565b9150613ffc82613fbb565b602082019050919050565b6000602082019050818103600083015261402081613fe4565b9050919050565b7f5369676e6572206d75737420626520746865206f70706f6e656e740000000000600082015250565b600061405d601b83613f3e565b915061406882614027565b602082019050919050565b6000602082019050818103600083015261408c81614050565b9050919050565b7f416d6f756e742073686f756c64206265207468652073616d652061732061677260008201527f6565640000000000000000000000000000000000000000000000000000000000602082015250565b60006140ef602383613f3e565b91506140fa82614093565b604082019050919050565b6000602082019050818103600083015261411e816140e2565b9050919050565b60008151905061413481613844565b92915050565b6000602082840312156141505761414f61377a565b5b600061415e84828501614125565b91505092915050565b7f4e6f7420656e6f75676820534d534820746f6b656e7300000000000000000000600082015250565b600061419d601683613f3e565b91506141a882614167565b602082019050919050565b600060208201905081810360008301526141cc81614190565b9050919050565b60006060820190506141e86000830186613e43565b6141f56020830185613e43565b6142026040830184613ee7565b949350505050565b61421381613804565b811461421e57600080fd5b50565b6000815190506142308161420a565b92915050565b60006020828403121561424c5761424b61377a565b5b600061425a84828501614221565b91505092915050565b7f4e487b7100000000000000000000000000000000000000000000000000000000600052601160045260246000fd5b600061429d8261383a565b91506142a88361383a565b92508282019050808211156142c0576142bf614263565b5b92915050565b7f4e6f7420696e20746865206d6174636800000000000000000000000000000000600082015250565b60006142fc601083613f3e565b9150614307826142c6565b602082019050919050565b6000602082019050818103600083015261432b816142ef565b9050919050565b7f4d61746368207374617465206d75737420626520696e20766f74696e67206f7260008201527f207374617274656420737461746520746f20766f746500000000000000000000602082015250565b600061438e603683613f3e565b915061439982614332565b604082019050919050565b600060208201905081810360008301526143bd81614381565b9050919050565b7f4f70706f6e656e74206d757374206e6f74206265206e756c6c2061646472657360008201527f7300000000000000000000000000000000000000000000000000000000000000602082015250565b6000614420602183613f3e565b915061442b826143c4565b604082019050919050565b6000602082019050818103600083015261444f81614413565b9050919050565b7f596f752063616e6e6f74206661636520796f757273656c6620696e2061206d6f60008201527f6e65796d61746368000000000000000000000000000000000000000000000000602082015250565b60006144b2602883613f3e565b91506144bd82614456565b604082019050919050565b600060208201905081810360008301526144e1816144a5565b9050919050565b7f4e487b7100000000000000000000000000000000000000000000000000000000600052601260045260246000fd5b60006145228261383a565b915061452d8361383a565b92508261453d5761453c6144e8565b5b828206905092915050565b7f6d61784d617463686573206d757374206265206f646400000000000000000000600082015250565b600061457e601683613f3e565b915061458982614548565b602082019050919050565b600060208201905081810360008301526145ad81614571565b9050919050565b7f506f73697469766520616d6f756e742069732072657175697265640000000000600082015250565b60006145ea601b83613f3e565b91506145f5826145b4565b602082019050919050565b60006020820190508181036000830152614619816145dd565b9050919050565b60006040820190506146356000830185613e43565b6146426020830184613e43565b9392505050565b7f436f6e7472616374206e6f7420617070726f76656420746f207370656e64207460008201527f6f6b656e73000000000000000000000000000000000000000000000000000000602082015250565b60006146a5602583613f3e565b91506146b082614649565b604082019050919050565b600060208201905081810360008301526146d481614698565b9050919050565b60006146e68261383a565b91507fffffffffffffffffffffffffffffffffffffffffffffffffffffffffffffffff820361471857614717614263565b5b600182019050919050565b7f55736572732063616e207374696c6c2074727920746f2068617665206120636f60008201527f6e73656e73757300000000000000000000000000000000000000000000000000602082015250565b600061477f602783613f3e565b915061478a82614723565b604082019050919050565b600060208201905081810360008301526147ae81614772565b9050919050565b7f4d61746368206e6565647320746f2062652066726f7a656e20746f207769746860008201527f647261772066756e647300000000000000000000000000000000000000000000602082015250565b6000614811602a83613f3e565b915061481c826147b5565b604082019050919050565b6000602082019050818103600083015261484081614804565b9050919050565b60006148528261383a565b915061485d8361383a565b92508261486d5761486c6144e8565b5b828204905092915050565b7f4e487b7100000000000000000000000000000000000000000000000000000000600052604160045260246000fd5b7f4e487b7100000000000000000000000000000000000000000000000000000000600052603260045260246000fd5b600080fd5b6000601f19601f8301169050919050565b6148f5826148db565b810181811067ffffffffffffffff8211171561491457614913614878565b5b80604052505050565b6000614927613770565b905061493382826148ec565b919050565b60008151905061494781613916565b92915050565b6006811061495a57600080fd5b50565b60008151905061496c8161494d565b92915050565b60006101a08284031215614989576149886148d6565b5b6149946101a061491d565b905060006149a484828501614125565b60008301525060206149b884828501614938565b60208301525060406149cc84828501614938565b60408301525060606149e084828501614938565b60608301525060806149f484828501614125565b60808301525060a0614a0884828501614125565b60a08301525060c0614a1c84828501614125565b60c08301525060e0614a3084828501614125565b60e083015250610100614a4584828501614938565b61010083015250610120614a5b84828501614938565b61012083015250610140614a7184828501614125565b61014083015250610160614a8784828501614221565b61016083015250610180614a9d8482850161495d565b6101808301525092915050565b60006101a08284031215614ac157614ac061377a565b5b6000614acf84828501614972565b91505092915050565b7f596f752073686f756c6420696e6372656173652073636f726520666f7220616e60008201527f206578697374696e672075736572000000000000000000000000000000000000602082015250565b6000614b34602e83613f3e565b9150614b3f82614ad8565b604082019050919050565b60006020820190508181036000830152614b6381614b27565b9050919050565b7f4d61746368207374617465206d75737420626520696e20766f74696e6720737460008201527f61746520746f20696e6372656173652073636f72650000000000000000000000602082015250565b6000614bc6603583613f3e565b9150614bd182614b6a565b604082019050919050565b60006020820190508181036000830152614bf581614bb9565b9050919050565b6000604082019050614c116000830185613e43565b614c1e6020830184613ee7565b9392505050565b6000614c308261383a565b9150614c3b8361383a565b9250828203905081811115614c5357614c52614263565b5b92915050565b7f4e487b7100000000000000000000000000000000000000000000000000000000600052603160045260246000fd5b6000604082019050614c9d6000830185613e43565b614caa60208301846138ba565b939250505056fea2646970667358221220210b88bb7f534d0d61f66782432f303a0dda85aeb5624eba4fef35eb6510fd6064736f6c63430008180033",
  "linkReferences": {},
  "deployedLinkReferences": {}
}